:020000040800F2
:1000000038360020D500000829650008C1520008D4
:1000100000000000000000000000000000000000E0
:100020000000000000000000000000004D65000816
:1000300000000000000000002B6500084F6500086C
:10004000E7000008E70000083D650008E700000839
:10005000E7000008E7000008E7000008591B000857
:10006000E7000008E700000879130008E70000082F
:10007000E7000008E7000008E7000008E7000008C4
:10008000E7000008E7000008E700000800000000A3
:10009000E7000008E7000008E7000008E7000008A4
:1000A000E7000008E7000008E7000008696D0008A5
:1000B000796D00082D65000800000000E7000008C9
:1000C0000348854600F08CFD00480047B1860008D3
:1000D000383600200448804704480047FEE7FEE722
:1000E000FEE7FEE7FEE7FEE7DD650008C100000869
:1000F000F0B51FB40646002082B0054640240191A9
:1001000000901BE0019922460F46304600F0FEFBAE
:10011000049A059B801A994110D31046194622462D
:1001200000F0E4FB361A8F4101972246012000219E
:10013000009F00F0DBFB38184D4100902046641E04
:100140000028DFDC019B00982946324607B0F0BD4D
:100150000048704724C5000801466139192900D8B4
:100160002038704738B50446C0681821401E4843FF
:10017000A16840183C214843616840183C2148432D
:100180002168451860690C2148432169401869219C
:10019000C900401A302100F081FB114A5043421936
:1001A000084600921A2902DB0E49511800910C21D1
:1001B00000F074FB0C4A5043009A801800900B48E2
:1001C00006E0491E425C074B5A43009BD21800923E
:1001D0000029F6DC2146684600F0BCFB009838BDDB
:1001E000801F8607805101008033E10128C5000887
:1001F00003460B439B0703D009E008C9121F08C040
:10020000042AFAD203E00B780370401C491C521EEA
:10021000F9D27047D2B201E00270401C491EFBD2F5
:1002200070470022F6E710B513460A460446194601
:10023000FFF7F0FF204610BD421E5378521C002BE2
:10024000FBD10B781370491C521C002BF9D170475D
:1002500030B505462A460B4610781C78521C5B1CAC
:10026000002801D0A042F7D0002C03D0002802D0F3
:100270006D1CEFE7284630BD10B5044605E00B784D
:100280000370401C002B00D0491C521EF7D22046A0
:1002900010BDCAB2401E4178401C8A4202D00029DB
:1002A000F9D100207047421C0178401C0029FBD185
:1002B000801A704710B5002200E0521C835C8C5CF1
:1002C000A34201D1002BF8D1D8B2E1B2401A10BD3F
:1002D0000022CBB20178994200D10246401C00298D
:1002E000F8D11046704770B506460BF051FC046813
:1002F00005460A220021304600F066FB2C6070BDE6
:10030000024670B54A40D30FDB0740002DD04A00AB
:100310002AD0010E140E000212020919400A520AD4
:100320008418E50104465443000A120A2E0450437F
:10033000A4194219200CC543AA18120C0125AD03BB
:10034000521C521912047F39240400D0521C10434D
:1003500001D44000491EC2B20C06C0092018401C3E
:100360004008802A02D003E0002070BD4008400011
:10037000002900DA0020184370BD70B502464A40DB
:10038000D50F40004A00ED0740085208002814D05D
:10039000002A12D0C40DD30D41020120C005520223
:1003A000490A520AE41A091812187D34914201D3FD
:1003B000641C00E04900002C01DA002070BD00231D
:1003C000914201D3891A0343400849000028F7D11C
:1003D00000290AD0914202D10121C90705E09142CA
:1003E00001D2012101E00121C943E005C0184019F3
:1003F00000F022FB70BD0000F0B5074608465840EB
:1004000087B0C00F049048000E46590040084908C4
:10041000BC1A884105D2384631461E4617460B465F
:1004200002465800400810434CD0300D0390400560
:100430005900400D490D0590401A0290402872DA8B
:1004400018030121000B090508430190049800924C
:10045000002805D001995242002088410092019065
:10046000029840210A1A0199009800F03FFA0546C7
:100470000C466B4607CB00F05AFAC0197141039A3B
:100480000E0D0023D71756401A467A40164344D023
:10049000049A002A2DD0029A012A039A15DC12052B
:1004A000C01A914101263605001C7141D20F059EEC
:1004B000D2070093019202962A46234600F00AFBD7
:1004C00007B0F0BD38463146FAE71605224A0F4616
:1004D000B218C01AB74101210905001C4F4100188C
:1004E0007F41114618187941E20F10436D1964419C
:1004F00013E0E2076D0815436408C2071443039A2A
:1005000001261205C01A91413605001C7141CE0723
:10051000400830434908C01851412A46234600F09C
:10052000CCFACDE7FFE7049801224000C117121A68
:1005300000238B4104983146C417381AA141EEE7D5
:1005400030B40124E407634030BC55E730B40124E3
:10055000E407614030BC4FE70000E0FFF0B51FB496
:1005600088B00B990998002448400999C00F4900A8
:1005700049080991C0070B990090490049080B915F
:1005800009990898A64608431CD00B990A98084375
:1005900018D0099801244000420D4800410D0998E7
:1005A00024050003000B204309900B980003000B67
:1005B00020430B9050181C4940180022019014460B
:1005C000104605E0002001460DB0F0BD032801DA19
:1005D000034600E003239C46C11A0AAE0AE05F000E
:1005E00008ADED5B4F00F75B7D430027AA187C4107
:1005F000491C5B1E6145F2DD410004AB5A522104E7
:10060000120C0A43240C401C0828DFDB01980290DE
:100610000099704601910090059B049A07990698ED
:1006200000F058FAD0E700000DFCFFFFF0B50C46D3
:100630005C4085B0E40FE40703944C000026640896
:1006400059009446490802460296224321D0624648
:100650000A431ED06200570D4A000E032303550DB6
:10066000012402462C492405781B1B0B360B40182D
:1006700023432643614600901C46501AB44103D3DD
:100680000098401C009002E0921800985B410028FE
:1006900003DA0020014605B0F0BD00200121090564
:1006A0000746864611E064461D46141BB54106D335
:1006B0006546521BB341744607430C43A646CD071B
:1006C00040084908284392185B4105460D43EAD18A
:1006D0001046184313D060461946504071400843F5
:1006E00006D06046101AB34106D20122002306E06C
:1006F00000220123DB0702E00122D24353100098BD
:1007000074460105381C6141029C039D0019694132
:1007100000F0D3F9BFE70000FD0300000122D2077B
:10072000002800DB101A002900DB511A814201D297
:1007300001207047002070470122D207002800DB0B
:10074000101A002900DB511A814201D9012070479B
:10075000002070470122D207002800DB101A002970
:1007600000DB511A814201D10120704700207047FF
:10077000C217C10F504010B54018CA079623002178
:1007800000F062F910BD00000EB5C217C10F504055
:10079000CA0740180021054B0293019200910A46B6
:1007A0000B4600F097F903B000BD000033040000D1
:1007B0000EB505490291002100910A460B460191B0
:1007C00000F088F903B000BD33040000C20F4100FF
:1007D00040020123400ADB05D207090EC0187F2919
:1007E00001DA00207047962903DC9623591AC84085
:1007F00001E096398840002AF4D040427047C20F89
:10080000D207400040080BD0C10D0723DB01C918F7
:1008100040020905400A1143C208400711437047CE
:10082000002001467047CB0FDB07490010B549088F
:1008300002460A4307D00A0D07240903E401090B05
:10084000121B002A01DC002010BDC900440F0C431C
:10085000C100E018D205801800F0EEF810BD70B5A8
:100860000446002903D000202022012310E00028A4
:1008700001D00020C043C046C0460DE02546D5400B
:100880008D4205D30D469540641B1D469540401989
:100890001546521E002DF1DC214670BD70B50025B5
:1008A00004462E46002911D0002C01DA01254442CD
:1008B000002901DA012649422046FFF7D0FFB54260
:1008C00000D04042002D00D0494270BD002C02DA19
:1008D0000121C90702E0002C00DD03490846C0469B
:1008E000C046214670BD0000FFFFFF7F10B5202AE3
:1008F00004DB0146203A9140002010BD91402023A6
:100900009C1A0346E3401943904010BD10B5202ABD
:1009100004DB0846203AD040002110BD0B46D340EE
:10092000D0402024A21A91400843194610BD10B5AA
:10093000202A06DBCB170846203A1041C1170B438B
:1009400006E00B461341D0402024A21A91400843F0
:10095000194610BD70B50C4600683C21FFF77FFFBB
:1009600021603C21FFF77BFF61601821FFF777FFD3
:100970000546A1600721001DFFF771FFA1610F4827
:10098000A90008180E49FFF76AFF0246443288089A
:100990006261E0613B2802D3910700D0401C002136
:1009A000084B0A462161995C814203D8401A521CC7
:1009B0002261F8E7401CE060204670BD6C0B00002F
:1009C000B505000034C50008F7B5009C0F460026A9
:1009D0002578641C002D05D0FFF7BAFB0068405D48
:1009E000C007F5D12B2D02D02D2D18D0641E39460D
:1009F0002046029A00F006F9002F04D03968A1427F
:100A000001D1009939607105022400290BDA4042B6
:100A1000002803DD0BF0BCF80460A007FEBD012038
:100A200080020643E3E70028F8DA0BF0B1F804602F
:100A30000048FEBDFFFFFF7F002904DA401C49008B
:100A400001D140084000704770B40024050C05D166
:100A50001024000402D1002921D01124050E01D157
:100A600000020834050F01D10001241D850F01D1BA
:100A70008000A41C002801DB4000641C002908D071
:100A800020252E1B0D46F540A14000D00121294311
:100A9000084301061B1B000ADB1D02D5002070BCA9
:100AA0007047DB05181880180029F8DA401C490047
:100AB000F5D170BC40084000704710B5002B08DA33
:100AC0000024401C614192185B411A4301D1400847
:100AD000400010BDF0B51FB482B005460C0003D035
:100AE00008460BF03DF802E00BF03AF820300246E1
:100AF000009021462846FFF7F9FE049B059A04461C
:100B00000F4618431143084314D0184610431BD016
:100B1000009840210A1A18460599FFF7F7FE054686
:100B20000E46009A05990498FFF7E0FE084305D0A9
:100B3000012004E02046394607B0F0BD0020C1176F
:100B400005430E432C43374300990E986305401A22
:100B50007905E40A00220C43FD0A0A3002D5002080
:100B60000146E9E70105101969410C9C0D9D00192A
:100B70006941FFF7A2FFDFE74A0009030123090BE0
:100B80001B0519430A4B10B5520D9A4202DA002098
:100B9000014610BD064B34339A4203DC9A1AFFF724
:100BA000B5FE10BD034BD218FFF7A0FE10BD00002C
:100BB000FF030000CDFBFFFF10B5002904DB01247B
:100BC000E40740428C412146002B04DB1C460123F4
:100BD000DB075242A341994200D1904210BD000070
:100BE000064C0125064E05E0E36807CC2B430C3C80
:100BF00098471034B442F7D3FFF766FA34D90008A7
:100C000054D90008F7B582B0029C00272078641CF4
:100C100015460197302802D0002D15D015E0207818
:100C20000127641C782804D0582802D0002D09D050
:100C30000BE0002D01D0102D07D1002710252078C2
:100C4000641C02E0082500E00A250026009610E05A
:100C50000099012769430818020C294680B27143A4
:100C600000908E183804864201D30120019020782C
:100C7000641C294600F019F80028E9DA03980028D6
:100C800005D0002F01D0641E00E0029C0460019892
:100C9000002806D00AF07CFF02210160C81E05B0C2
:100CA000F0BD009930040843F9E73A2800D2303803
:100CB000202302469A43412A01D3104637388842FE
:100CC00001D30020C043704770B58C180578401CD4
:100CD0006B075B0F01D10378401C2A1106D1027803
:100CE000401C03E006780E70401C491C5B1EF9D1C5
:100CF0002B0705D40023521E0DD40B70491CFAE7B4
:100D00000378401CCB1A921C03E01D780D70491C1F
:100D10005B1C521EF9D5A142D8D3002070BD000043
:100D2000F0B58BB0054604F037FA02908A48048C7F
:100D30000A26304601F0F0FC284604F02DFA009017
:100D40008548078C304601F0E7FC284604F024FA79
:100D500003908148008C0190304601F0DDFC28466C
:100D600004F01AFA05907C48008C0490304601F09B
:100D7000D3FC284604F010FA0A907748008C0690BD
:100D8000304601F0C9FC0995284604F005FA0890A0
:100D90007148008C0790304601F0BEFC0298444335
:100DA000200B80B200994F43390B8AB2904204461F
:100DB00000D81446904200D802460398019948434F
:100DC000000B80B28242114663D98C42234664D91B
:100DD0008C4265D9824200D81046059A049C624331
:100DE000120B92B2904205465ED9A9420F465FD9D6
:100DF000BB421C4660D9BB4261D9A94262D990422C
:100E000000D802460A9806994843000B80B28242F5
:100E100011465BD98D422B465CD99F423E465DD937
:100E2000B4420A945ED9B4425FD99F4260D98D42E0
:100E300061D982420A9F00D81046089A079C6243F3
:100E4000120B92B290425BD981420A465CD993421E
:100E50001C465DD9A64235465ED9AF425FD9A6424F
:100E600060D9934261D9814200D808461018001910
:100E7000401985082846FFF77BFC06460999012999
:100E800057D03C48814256D03B48814260D141A472
:100E900052E001468C4223469AD80B468C4299D8A0
:100EA0002146824298D998E71546A9420F469FD815
:100EB0002F46BB421C469ED83C46BB429DD81F468F
:100EC000A9429CD80D4690429BD99BE701468D4292
:100ED0002B46A2D80B469F423E46A1D81E46B4429E
:100EE0000A94A0D80A96B4429FD826469F429ED81C
:100EF0003B468D429DD8294682420A9F9CD99CE759
:100F0000104681420A46A2D8024693421C46A1D806
:100F10001446A6423546A0D82546AF429FD83D4646
:100F2000A6429ED8344693429DD81A4681429CD907
:100F30009CE70AA400E011A401F02EFE074630460B
:100F4000FFF75DFC02460B46204639460AF0E4FDF9
:100F5000A8B20BB0F0BDC046300000205B25645D38
:100F60006164635F6D562831293A252E32660D0A79
:100F70000000000010000010020000045B25645D0A
:100F80006164635F6D562833293A252E32660D0A57
:100F9000000000005B25645D6164635F6D5628326C
:100FA000293A252E32660D0A0000000070B582B085
:100FB00004460068816803220A40012A02D10168C0
:100FC000C90747D18168254A11420AD0606D1021B6
:100FD00001436165A06D01252843A065284602B044
:100FE00070BD816801220A4382601D4800681D4966
:100FF000FFF735FC01900198002817D00198401E9A
:1010000001900198002811D00198401E019001988C
:1010100000280BD00198401E01900198002805D0AF
:101020000198401E019001980028E7D101F0B4FD1D
:10103000064620680068002500E00068C007CDD1A2
:1010400001F0AAFD811B20680B29F6D30168C907AE
:10105000F3D1BBE70025284602B070BD1700008021
:10106000E81E002040420F0070B5044600780028BA
:1010700012D000250D2801D00A2801D1002060558A
:101080006E1C2046FFF70FF9864205D260194078A2
:1010900035460D28F0D1F1E795A12046FFF70AF972
:1010A0000025002800D1FEE092A12046FFF702F9BA
:1010B000002807D090492046FFF7CAF8002805D03D
:1010C0000025D2E006F016FB284670BD8B4920466D
:1010D000FFF7BEF8002801D00125C6E08849204668
:1010E000FFF7B6F8002801D00225BEE0854920466A
:1010F000FFF7AEF8002801D00325B6E0824920466C
:10110000FFF7A6F8002801D00425AEE07F4920466D
:10111000FFF79EF8002801D00525A6E07C4920466F
:10112000FFF796F8002801D006259EE07949204671
:10113000FFF78EF8002801D0072596E07649204673
:10114000FFF786F8002801D008258EE07349204675
:10115000FFF77EF8002801D0092586E07049204677
:10116000FFF776F8002801D00A257EE06D49204679
:10117000FFF76EF8002801D00B2576E06A4920467B
:10118000FFF766F8002801D00C256EE0674920467D
:10119000FFF75EF8002801D00D2566E0644920467F
:1011A000FFF756F8002801D00E255EE06149204681
:1011B000FFF74EF8002801D00F2556E05E49204683
:1011C000FFF746F8002801D010254EE05B49204685
:1011D000FFF73EF8002801D0112546E05849204687
:1011E000FFF736F8002801D012253EE05549204689
:1011F000FFF72EF8002801D0132536E0524920468B
:10120000FFF726F8002801D014252EE04F4920468C
:10121000FFF71EF8002801D0152526E04C4920468E
:10122000FFF716F8002801D016251EE04949204690
:10123000FFF70EF8002801D0172516E04649204692
:10124000FFF706F8002801D018250EE04349204694
:10125000FEF7FEFF002801D0192506E04049204690
:10126000FEF7F6FF002841D01A253EA12046FEF7E2
:10127000EFFF002807D0182068433B490818816811
:101280002046884770BD3D212046FFF702F8002820
:101290000BD01820684334490818C1682046884795
:1012A0000546002814D0284670BD3F212046FEF791
:1012B000F0FF002810D0182068432B490C1801F0CB
:1012C0006BFC0146626929A00AF026FC002070BD73
:1012D00007F00AF8002070BD18206843224908185A
:1012E0000169204688470025284670BD012070BD51
:1012F0004154000041543F0021CC0008A5CC000817
:10130000CCCB000811CC0008E0CB000861CC000871
:1013100003CC000855CC00080ACC000868CC0008B3
:10132000F0CB0008E9CB00085BCB000867CB0008D6
:1013300054CB0008D6CB000872CC00083DCC000886
:101340002FCC000836CC000819CC000844CC00088B
:10135000F9CB000879CC00084ECC0008C3CB0008BC
:101360004BCB00083D3F000058C500085B25645D7D
:1013700025730D0A0000000080B5034801F0CEF887
:10138000024801F0CBF880BD6C270020B427002074
:10139000F0B583B0044600F099FA204600F07CF9DD
:1013A000CC263046214600F0EDFA4420214600F0DC
:1013B000E9FA834801F0B0F9204600F087FA2046A8
:1013C00000F06AF93046214600F0DCFABE202146E2
:1013D00000F0D8FA204600F0FFF90646204600F05B
:1013E000FBF947003743204600F0F6F986003E43FC
:1013F000204600F0F1F9C7003743204600F0ECF931
:1014000006013E43204600F0E7F9470137432046F6
:1014100000F0E2F986013E43204600F0DDF9C70105
:101420003743204600F0D8F90646204600F0D4F9AC
:1014300045003543204600F0CFF986002E43204674
:1014400000F0CAF9C5003543204600F0C5F9060191
:101450002E43204600F0C0F945013543204600F0F8
:10146000BBF986012E43204600F0B6F9C001304397
:10147000C1B2052970D1F9B250296DD1204600F0D2
:1014800025FA204600F008F9CC263046214600F027
:1014900079FA4420214600F075FA494801F03CF9F8
:1014A000204600F013FA204600F0F6F830462146B8
:1014B00000F068FABE20214600F064FA204600F0F1
:1014C0008BF90546204600F087F946002E4320465A
:1014D00000F082F985003543204600F07DF9C60012
:1014E0002E43204600F078F905013543204600F0F0
:1014F00073F946012E43204600F06EF9850135430D
:10150000204600F069F9C7012F43204600F064F936
:101510000546204600F060F946002E43204600F0C4
:101520005BF985003543204600F056F9C6002E438E
:10153000204600F051F905013543204600F04CF9F2
:1015400046012E43204600F047F9850135432046E9
:1015500000F042F9C0012843F9B20002401800B27D
:101560000121C943884205DC4042FFF70DF9002202
:101570001B4B05E0002818D4FFF706F90022174B93
:10158000FEF7ECFFFFF74FF90546FFF738F906467F
:101590000F4601F001FB01460096019711A022467B
:1015A0000AF0BAFA284603B0F0BD01F0F5FA014698
:1015B00004A00AF0B1FA084D284603B0F0BDC046B9
:1015C000EE0200005B25645D445331384232302026
:1015D0006572726F720D0A0000C0CCC30000B03F8C
:1015E0000000B0BF5B25645D44533138423230287F
:1015F0002564292074656D7020697320252E32665C
:10160000200D0A0080B586B0032818D002282CD0FF
:10161000012828D1D94801680222114301600068DD
:1016200010400090002003900320029008200190B9
:101630000098D34801A901F0C9F906B080BDCF4890
:1016400001680122114301600068104000900020F1
:10165000039003200290900201900098052000075B
:1016600001A901F0B3F906B080BDC44801680122A8
:101670001143016000681040009000200390032097
:1016800002905002019000980520000701A901F086
:101690009DF906B080BDC046F0B587B0032832D0B2
:1016A000022863D001285DD1B448016802221143A9
:1016B0000160006810400190012404940026039604
:1016C000082002900198AE4D02A9284601F07EF94B
:1016D00037460821284601F051FA002802D07E1C26
:1016E000642FF5D3632F63D80020044608212846D1
:1016F00001F044FA002802D1601CF02CF5D3EF2C45
:1017000066D8002454E0012204929C4801681143E9
:101710000160006810400190002703970092950235
:10172000029501980520060702A9304601F04EF9FE
:101730003C463046294601F021FA002802D0671CB9
:10174000642CF5D3632C009C32D80020044630462C
:10175000294601F013FA002802D1601CF02CF5D3C1
:10176000EF2C35D80024204607B0F0BD01220492AA
:10177000F74801681143016000681040019000249F
:10178000039400925502029501980520060702A9CC
:10179000304601F01BF927463046294601F0EEF9A4
:1017A000002802D07C1C642FF5D3632F009C02D943
:1017B000204607B0F0BD002004463046294601F01F
:1017C000DDF9002802D1601CF02CF5D3EF2CC9D92B
:1017D0000124204607B0F0BDF0B587B0032836D00D
:1017E000022841D001282FD102270597D84D28681B
:1017F0003843286028683840019001200090039009
:10180000082402940198D34802A901F0DFF80026C9
:10181000D0482146324601F0B6F92868384328609E
:10182000286838400190009804900396029401982B
:1018300002A9C84D284601F0C9F82846214601F002
:101840009DF9411E48424841C0B207B0F0BDC049B1
:101850000868012738430860086838400190022072
:1018600005900397BC020BE0B9490868012738438B
:1018700008600868384001900220059003977C02B8
:10188000029401980520050702A9284601F09EF858
:10189000002628462146324601F075F9FC490868C1
:1018A0003843086008683840019002A8D0C0019809
:1018B00002A9284601F08AF82846214601F05EF97F
:1018C000411E48424841C0B207B0F0BD70B586B075
:1018D000032813D0022831D001282DD102200490F2
:1018E000EB490A6802430A6009680140009101243B
:1018F0000294082501950098E64E2FE0E44801681F
:1019000001242143016000682040009002200490DF
:101910000294A502019500980520060701A930460A
:1019200001F054F800223046294601F02CF93046E7
:101930002946224601F027F906B070BDD448016857
:10194000012421430160006820400090022004909F
:1019500002946502019500980520060701A930460A
:1019600001F034F800223046294601F00CF93046E7
:101970002946224601F007F906B070BD2C1002403E
:1019800000040050F0B587B0032913D0022978D0A5
:10199000012974D102200590BD490A6802430A60FA
:1019A00009680140019101240394082502950198DA
:1019B000B84E76E0B6480168012421430160006812
:1019C00020400190022005900394A5020295019801
:1019D0000520060702A9304600F0F8FF0027304630
:1019E00029463A4601F0CFF830462946224601F012
:1019F000CAF8304629463A4601F0C5F8304629462D
:101A0000224601F0C0F8304629463A4601F0BBF8BC
:101A100030462946224601F0B6F8304629463A4675
:101A200001F0B1F830462946224601F0ACF83046C4
:101A300029463A4601F0A7F830462946224601F0E9
:101A4000A2F8304629463A4601F09DF8304629462C
:101A5000224601F098F8304629463A4601F093F8BC
:101A600030462946224601F08EF8304629463A464D
:101A700001F089F830462946224601F084F807B083
:101A8000F0BD8348016801242143016000682040C3
:101A900001900220059003946502029501980520AB
:101AA000060702A9304600F091FF0027304629467C
:101AB0003A4601F068F830462946224601F063F8BC
:101AC000304629463A4601F05EF83046294622461D
:101AD00001F059F8304629463A4601F054F83046AC
:101AE0002946224601F04FF8304629463A4601F091
:101AF0004AF830462946224601F045F83046294644
:101B00003A4601F040F830462946224601F03BF8BB
:101B1000304629463A4601F036F8304629462246F4
:101B200001F031F8304629463A4601F02CF83046AB
:101B30002946224601F027F8304629463A4601F068
:101B400022F830462946224601F01DF807B0F0BDC4
:101B50002C1002400004005010B50124600300F076
:101B600029FFA00300F026FF10BD000070B586B06D
:101B700000250595049503950295019503287CD8C9
:101B8000800001A108588746991B0008E51B000842
:101B90000B1C0008311C00083D4801680126314338
:101BA00001600168314000910099016802221143EF
:101BB0000160006810400090039503200290B0037C
:101BC00001900098334801AC214600F0FFFE0395D8
:101BD00002953003019005200007214600F0F6FE33
:101BE00006B070BD2A4801680124214301600168E4
:101BF00021400091009901680222114301600068B0
:101C0000104000900395312024E021480168012410
:101C1000214301600168214000910099016802227E
:101C2000114301600068104000900395212011E0ED
:101C30001748016801242143016001682140009197
:101C40000099016802221143016000681040009071
:101C50000395112000040290A003019000980D4804
:101C600001A900F0B3FE2003019003950320029028
:101C70000520000701A900F0A9FE07240221002287
:101C8000204601F049FB204601F03AFB06B070BD4A
:101C90002C100240000400507047000070B5012273
:101CA00051480168C90504D4002103689B0509D483
:101CB0000EE01102274B5C69022525435D61036834
:101CC0009B0505D55302234C65691543656119438E
:101CD00003685B050DD403681B0514D403689B04DB
:101CE0001BD403689B0322D40368DB0328D4016060
:101CF00070BD9302174C656908262E43666119432F
:101D000003681B05EAD5D302124C656904262E43ED
:101D10006661194303689B04E3D553030D4C656961
:101D200010262E436661194303689B03DCD5094BDB
:101D30005C6920252C435C6129430368DB03D6D50D
:101D40001204044B5C69402525435D611143016029
:101D500070BDC0460C2B0020F0B581B0054600F0E8
:101D60001BFF0646204F3868C00721D1386880071E
:101D700001D5022038603868C00513D43868800562
:101D800010D4386840050DD4386800050AD4386886
:101D9000800407D43868800304D43868C00301D4B1
:101DA000002402E0FFF77AFF0124204601B0F0BDD5
:101DB0000324002DF9D0681C0FD13868C007D5D096
:101DC0003868C007D2D03868C007CFD03868C0079D
:101DD000F3D1CBE73868C007C8D000F0DDFE801B28
:101DE000A842F7D9E1E7C0461820024070B50D4679
:101DF000064600F07DFD0F4C00206060A660E560A7
:101E0000251D2846214600F0EDFC00280ED028466E
:101E1000214600F0E7FC002808D02846214600F0C3
:101E2000E1FC002802D004A009F076FE00F02EFDAF
:101E300070BDC0463C1F00206572726F7220696ED3
:101E4000204572617365206F7065726174696F6E91
:101E50000A0D000070B514460D46064600F048FD18
:101E6000002C0BD02A680220314600F01BFD002810
:101E700007D1641E2D1D361D002CF3D100F006FD88
:101E800070BD06A009F048FE00F0FCFC01460AA067
:101E900009F042FE00F0FAFC70BDC0466572726F38
:101EA0007220696E205772697465206F7065726167
:101EB00074696F6E0A0D000077726974655F6572F0
:101EC000726F725F666C61673A257800006802493C
:101ED000086008687047C046DC250020F0B58DB06A
:101EE000044600200C900B900A9009900890204620
:101EF000FEF7F9F9134940180190601DFEF7F3F958
:101F0000009020460830FEF7EEF9064620460B30DA
:101F1000FEF7E9F9074620460E30FEF7E4F90546DC
:101F200011342046FEF7DFF9019907910099491E07
:101F30000691059602A9A1C102A8FEF713F90DB0FA
:101F4000F0BDC04694F8FFFF80B503F073F90F4968
:101F5000486080BD10B503F06DF90C4C20606168DD
:101F6000884202D10020A06010BD401AFEF700FC9C
:101F70000749C96AFEF701FAFEF728FC054941182E
:101F8000054A914200D20020A06010BD4C1F0020E5
:101F90003000002077ECFFFFEFD8FFFFF0B583B0F3
:101FA00005465020285C012803D10224204603B0B6
:101FB000F0BD2F46503701243C7028688168032308
:101FC0001940012902D10168C90732D18121490094
:101FD0006A6D8A43911C6965C1680191C168029369
:101FE0009943C160E10782680A43826000F0D4FD32
:101FF00006462868816800290ED500F0CDFD811BBA
:1020000028680B29F6D381680029F3D5686D102163
:102010000143022081430FE00299019A0A40C168FE
:102020001143C160686D2043022188436865002424
:1020300003E0686D20210143696500203870204667
:1020400003B0F0BD70B582B05022825C012A02D18B
:10205000022002B070BD04465034026893685B07EA
:1020600018D40E6849682D4830409F4D2C4B99423A
:1020700019D1916A81439162700304D50120C00592
:10208000296881432960B00319D50120810528689A
:10209000884313E0416D20220A434265012000215C
:1020A000217002B070BD916A0143916270030BD43C
:1020B000B00304D50120810528680843286000206A
:1020C0000021217002B070BD0120C00529680143C4
:1020D0002960144800681449FEF7C1FB0A214143F6
:1020E000019101980028E3D00198401E01900198C9
:1020F0000028DDD00198401E019001980028D7D01B
:102100000198401E019001980028D1D00198401EEE
:10211000019001980028E7D1CAE7C046FFFF0700F9
:1021200001100000E81E002040420F000068006C13
:1021300070470000F0B581B0012500283ED004466C
:1021400006465036406D002803D0606DC00609D5A4
:102150002EE000203070A065204600F0C9F8606DC8
:10216000C00625D420688168490721D4812149000F
:10217000626D8A43911C61658168032211405A4B4C
:10218000012902D10168C9072ED161680125EE0736
:10219000B14205D0AD07A94202D09507A94210D19E
:1021A000920705699543056102690A43026113E0DC
:1021B00000203070606D102101436165284601B038
:1021C000F0BD0269AA4302610F2292041D68954383
:1021D0001D601A680A431A60C16818229143C160E1
:1021E000A168C2680A43C2602246203201214D061E
:1021F0001E68AE431E60656B6D061E682E431E6032
:102200008368DB0003D40B0785681D43856000915C
:10221000C368364D1D40C56023699B1E5D425D410C
:10222000AB00E6681E4315786B033343266B1E43F1
:10223000137B5B003343A669E769B6031E43FB03C8
:102240003343C6681E43C660676A06460C36FF21E4
:102250000B46C2339F4215D15278012A009F1AD0F3
:102260000269E36B012B28D189008A43026123466E
:1022700040330ECB0A431A430169114301610269DD
:102280003A431EE0A36A3B4337681F4337605278E6
:10229000012A009FE4D1002D07D0626D2023134353
:1022A0006365264658363A4600E03A0433681343DD
:1022B00033600269E36B012BD6D0D10702D00269EB
:1022C000BA4302614169072291434161A16B4269AE
:1022D0000A4342610025A565606D384302218843A9
:1022E0006065284601B0F0BD082701401902FEFFD5
:1022F00000680549884200D0704701204002034928
:102300000A6802430A60704700240140341002400A
:10231000F0B581B00D4604460146503140690828A9
:1023200002D10091082705E02068C068C00767D186
:1023300000910C2700F030FC0646216808683842FE
:102340001ED001204202636D13436365CA68120503
:10235000920F67D1224620321278002A62D10A6891
:1023600012075FD58A68520753D4224654324B680D
:102370000C25AB434B60FF2502351368AB434FE0A0
:10238000681C39D0002D1BD10868384221D008685C
:102390003842D6D1086838421BD008683842D0D1BC
:1023A0000868384215D008683842CAD108683842EF
:1023B0000FD008683842E7D0C3E708683842C0D178
:1023C00000F0EAFB801B2168A842F6D90868384271
:1023D000F3D1002000990870606D0421014361650C
:1023E000032001B0F0BD08683842AAD1086838421D
:1023F000A7D108683842A4D108683842F3D0A0E7D2
:1024000000200870606D202101436165012001B04A
:10241000F0BD626D20231343636522465832A36DDD
:1024200003431360A2690020002A01D001B0F0BD6F
:102430000C220A6001B0F0BD70B5044600688168E6
:10244000022049070FD45021615C01290BD0254699
:10245000503501262E70E069012805D02046FEF790
:10246000A5FD002800D070BD606D08490140300214
:10247000081860650020A06521681C220A60287089
:102480008A68042313438B6070BDC046FEF0FFFFD3
:1024900010B52521425C01462431022A14D102687C
:1024A00013680E24A343136013680124A34313602D
:1024B000026C406C1C2303402046984050604C70D6
:1024C000002000220A7010BD0422C26301200022F5
:1024D0000A7010BDB0B52521415C02291AD1014610
:1024E0002431026813680E24A34313601368012586
:1024F000AB431360026C436C1C241C402B46A3406E
:10250000536000240C704D70816B002900D0884707
:102510002046B0BD0421C1630120B0BDF0B585B037
:10252000016C03910C68066831680425019129400B
:102530004A424A410490416C1C230B402F469F4065
:102540003946029421404C424C4114432FD000960E
:1025500001200227019E314639404D424D419F40A6
:10256000029C27420246014600D0294604980546AF
:10257000243500292AD008210E4077427741DC40DB
:10258000210700D53A46002A1ED1009C22680E2160
:102590008A432260012211469940039B5960C2631D
:1025A000002129706A70416B00290CD10CE0306861
:1025B000800602D43068A8433060039847600498CE
:1025C000016B002900D0884705B0F0BD009B196859
:1025D000890605D41A680A218A431A6001216970A4
:1025E0000021297003994F60C16A0029EBD1EBE704
:1025F000F0B585B0002841D00446054624350220B8
:1026000068702048206426681F4830181421FEF79F
:1026100026F980000090606432681C49114027460A
:1026200008378CCF60690190A0690290E06903903F
:10263000206A0490114319433943019801430298D9
:10264000014303980143049B1943316001218B032B
:102650009A420DD01C22009810400F2282400C4B51
:102660001E6896431E6062688240186810431860B6
:102670000020E0632870697005B0F0BD012005B04E
:10268000F0BDC04600000240F8FFFDBF0F80FFFF15
:10269000A8000240F0B582B004462420255C022048
:1026A000012D2BD0019226462436012232707778F4
:1026B000012F21D1022070700020E0632668376866
:1026C00097433760256C0095676C1C253D40174685
:1026D000AF40009D6F607360A368102B019F00D016
:1026E0000F46B760102B00D00199F1603168236B61
:1026F000002B05D00E2308E00021317002B0F0BDA0
:1027000004239943316033680A21194331603168E9
:102710001143316002B0F0BDB0B5044600F03CFAA0
:102720000546601C02D004480078041900F034FA11
:10273000401BA042FAD3B0BD680000208048016869
:1027400001220A43026000207047C046F0B581B004
:102750000646654F387C012802D1022001B0F0BD49
:1027600014460D46012038746048FFF7F5FA00283A
:1027700003D00021397401B0F0BD5C4900207861BC
:10278000002E08D0012E0BD0022E0ED12C6000217D
:10279000397401B0F0BD2C700021397401B0F0BD66
:1027A0002C800021397401B0F0BD0846FFF7D4FA3F
:1027B0000021397401B0F0BD61480168C9070DD02E
:1027C000EFF31081EFF3108272B65E4A82605E4AC8
:1027D000826081F310880068C00701D10020704733
:1027E00001207047F0B585B003903F4D287C01284B
:1027F00003D10226304605B0F0BD019101200290C0
:1028000028743A48FFF7A8FA0646002835D1002672
:10281000F04301990860039844688068C00100197A
:1028200084422AD200266E61029841020491444DEE
:1028300028680843286028680827384328607F20D4
:10284000214681430E602948FFF786FA2968B9437B
:1028500029602968049A91432960002809D10399C5
:1028600048688968C9010818803484421E4DD9D34C
:1028700003E001990C6006461B4D00202874304689
:1028800005B0F0BD184840697047C0462C48016843
:1028900002220A430260016801220A43026000200A
:1028A0007047C046F0B581B00F4F387C012802D187
:1028B000022001B0F0BD14460D46012038740B4EC5
:1028C0003046FFF749FA002803D00021397401B0DF
:1028D000F0BD002078612C603046FFF73DFA002102
:1028E000397401B0F0BDC0460C2B002050C300006D
:1028F00013480168C9070DD0EFF31081EFF3108280
:1029000072B6104A8260104A826081F310880168B2
:10291000C90712D1016889070DD5EFF31081EFF3D4
:10292000108272B6094AC260094AC26081F31088F7
:102930000068800701D40020704701207047C0461E
:1029400004200240EFCDAB8905040302BFAE9D8C8D
:102950001615141310B501214A0390420BD08A03B7
:1029600090420BD11048027A362A08D110484168AB
:10297000491C416010BD0B480221017110BD094A7C
:102980009278012AFAD11B22D343084A1478253CB5
:102990009C42F3D8C171092010700548017002F003
:1029A00085FD10BDEC1E002008000020241F002023
:1029B0003000002080B504490A68024202D0086055
:1029C000FFF7C8FF80BDC04614040140F0B58BB0CE
:1029D000099106466548864205D0062009990B688C
:1029E000002B06D1BFE0052009990B68002B00D110
:1029F000B9E00B21090772180A21CA410092052A81
:102A000000D300900124002203940A9208920496B5
:102A100011E019435648C160099803681846E04020
:102A2000121D641C0A99891C0A910899491C089175
:102A3000002800D197E0611E039807918840034069
:102A4000EAD00692099A55680326294631404F1E5E
:102A5000012F02951AD8032601940A9CA6400593DB
:102A6000049B9F68B743D2680A9CA240019C3A43EA
:102A70009A60EA06D20F079FBA405F688743174300
:102A80005F60059BF543089847000BE030460A9AC3
:102A90009040C5430329174604D105950A9F314646
:102AA000049E20E0049EF0682840099A9268BA408B
:102AB0000243F2600229059515D11C2006990840B1
:102AC0000F218140079AD2089200B218166A8E43ED
:102AD000099D296981403143049E1162069A6D68FF
:102AE0000321294001E0069A029DB9403068059F04
:102AF000384008433060A803800F8DD01D4E3068E9
:102B00000121014331600C2010400F21814003223C
:102B1000079F9743184D7A598A4300998140114382
:102B20007951099A124801685068C20301D51943C6
:102B300000E099430E4A11605168820301D51943A0
:102B400000E099430A4A51609168C20201D51943D5
:102B500000E09943069A064EB160F168800200D504
:102B600057E7994356E70BB0F0BDC046001C005034
:102B70000004014034100240080001400069084090
:102B8000411E88417047002A02D0182281507047A8
:102B90002822815070470000014800687047C046F5
:102BA00030320020F0B583B0002845D004460746F7
:102BB0007437806F002804D100203870204601F05F
:102BC000EBFF2420A067206801680125A94301606C
:102BD000204603F019FF01282BD0606A002802D09C
:102BE000204603F023FD0920C102206842688A4381
:102BF00042608168222291438160816808220A43F1
:102C0000826001680126314301600025FD60FFF705
:102C1000C3FF034620680168090713D515480090D3
:102C2000710500222046029304F002F8002807D024
:102C30000325284603B0F0BD0125284603B0F0BDAA
:102C40002068029B006840070CD50A480090B10537
:102C50000022204603F0ECFF002803D0032528467D
:102C600003B0F0BD2020A067E0673D7025662846D0
:102C700003B0F0BDFFFFFF01B0B502464120135C79
:102C80000220202B19D1134640331C78012C14D07C
:102C900024205870106802680124A24302602203B5
:102CA00005689543056002680A4302600168214394
:102CB00001600020187020215970B0BDB0B50246E7
:102CC0004120135C0220202B19D1134640331C787D
:102CD000012C14D024205870106802680124A243EB
:102CE00002600F2212020568954309022943016020
:102CF0000168214301600020187020215970B0BD87
:102D0000F0B581B0002822D00446054640356878E9
:102D1000002804D100202870204600F043FA242027
:102D200068702068026801218A4302600F2212063F
:102D30006368934303618368194A13408360A368FF
:102D4000E668012E06D1CE03334383600AE00120FA
:102D500001B0F0BD2127BF023B438360022E01D1A9
:102D6000CB02436043680F4E1E434660C368134066
:102D7000C360226963691343A26912021A43C260E5
:102D8000E269236A1343036002680A430260002079
:102D90006064202169702063A87001B0F0BDC04656
:102DA000FF7FFFFF00800002F0B585B017460546A3
:102DB00041202A5C0220202A00D0E6E02C46403444
:102DC0002278012A00D1E0E00193049101200394CC
:102DD00002902070FFF7E0FE06462868816909042A
:102DE0000BD50298C403FFF7D7FE801B192800D922
:102DF000B5E0286881692142F5D12221039A5170FA
:102E00001021917000216964019A6A856F620191B5
:102E10006963698D090ADC4BDC4A0AD0049C1C40BA
:102E200041681140049421435A4A0A434260FF21F9
:102E30000CE0698D44681440049F1F40CAB212041C
:102E40000497D2192243524B134343600A9F2985AA
:102E5000688D002855D0D04C0FE0698D29854268D7
:102E60002240C9B20904049BC91811430122520629
:102E70000A434260688D002843D0284639463246CE
:102E800002F078FA00285AD1686A2968496A017004
:102E9000688D401E6885686A401C6862288D401EE7
:102EA0002885698D0029E5D00004E3D1286881696F
:102EB000090619D4791C0BD0002F59D0FFF76CFEEE
:102EC000801BB84256D8286881690906F6D50BE000
:102ED0008169090608D48169090605D48169090652
:102EE00002D481690906F3D5698D090AB5D0FF219D
:102EF000298541682140049A1143A84A1143416041
:102F0000B8E7002F10D02868816989061AD42846AE
:102F10003946324602F0D6F9002810D1FFF73CFEC0
:102F2000801BB842EFD91AE028688169890609D464
:102F300000212846324602F0C5F900280DD00120B4
:102F400005B0F0BD2021C1614268954B134043603C
:102F5000039841700146019814E0FFF71DFE686C6C
:102F6000202108436864039841700146029809E0F3
:102F7000FFF712FE686C20210843686403984170D3
:102F80000146012000220A708A7005B0F0BDC046DB
:102F9000002400820024FF81F0B585B01746044666
:102FA0004120225C0220202A00D0EBE0254640355B
:102FB0002A78012A00D1E5E00193049101200395CC
:102FC00002902870FFF7E8FD064620688169090431
:102FD0000BD50298C503FFF7DFFD801B192800D928
:102FE0009DE0206881692942F5D12121039A517021
:102FF0001021917000216164019A628567620191DC
:103000006163618D090A604B604A0AD0049D1D40CE
:1030100041681140049529435E4A0A434260FF21FA
:103020000CE0618D45681540049F1F40CAB2120430
:103030000497D2192A43564B134343600A9F2185B4
:10304000618D002953D0544D0FE0618D2185426878
:103050002A40C9B20904049BC9181143012252062F
:103060000A434260618D002941D0204639463246EC
:1030700002F0D2F9002863D12068616A0A7882627E
:10308000628D521E6285491C6162218D491E218517
:10309000628D002AE6D00904E4D18169090619D4B9
:1030A000791C0BD0002F60D0FFF776FD801BB84253
:1030B0005DD8206881690906F6D50BE081690906AB
:1030C00008D48169090605D48169090602D4816999
:1030D0000906F3D5618D090AB7D0FF212185416822
:1030E0002940049A11432D4A11434160BAE781698E
:1030F00020252940002F1AD0002924D12046394606
:10310000324602F0DFF800281AD1FFF745FD801B98
:10311000B84223D8206881698906EFD513E0606C36
:103120002021084360640398417001461BE0002998
:1031300009D100212046324602F0C4F800280BD005
:10314000012005B0F0BDC5614168154A0A404260E2
:1031500003994D70019812E0FFF71EFD606C284343
:10316000606403994D70029809E0FFF715FD606CEB
:103170002021084360640398417001460120002229
:103180000A708A7005B0F0BDFF0300000098007C53
:10319000002000820020FF81009C00FC0000FF0155
:1031A00000E800FEB0B586B000681049884201D042
:1031B00006B0B0BD0E4C2068022108432060206894
:1031C00008400090012505950320049003951220E6
:1031D0000290C02001900098064801A9FFF7F6FB75
:1031E0006805E1680143E16006B0B0BD00540040ED
:1031F0002C10024000040050B0B5002823D0044633
:103200000068134901601349016061684160A16869
:103210008160FFF7C1FC05462068C16849070AD0F4
:10322000FFF7BAFC411B20682B29F6D3C168490778
:10323000F3D00320B0BDE16802698A4205D1094993
:1032400001600020B0BD0120B0BD01610020B0BD13
:10325000CCCC0000555500000068024901600020F8
:103260007047C046AAAA00001D48007802490A68B3
:10327000101808607047C0463032002010B508486A
:10328000016840220A4302600024204600F00AF848
:10329000002801D0012010BD00F026F8204610BD06
:1032A0000020024070B504467D20C0000C4E3178ED
:1032B000FDF7D5FA01460B480068FDF7D0FA01F09A
:1032C000F5F90125032C08D8002806D10025E8438C
:1032D00021462A4600F020F87460284670BDC0469A
:1032E00068000020E81E0020044801680122114304
:1032F0000160110742680A4342607047341002407F
:10330000002805D41F2108400121814001480160A7
:103310007047C04600E100E0002805D403220346C0
:1033200093430C4A9A1806E00F220240083A0323FE
:103330009A43074BD2188007C00E8901C9B2814059
:10334000FF23834010689843084310607047C046CD
:103350001CED00E000E400E0012080028A490A68D8
:1033600002430A607047C0460120400286490A684D
:1033700002430A607047C04670B501225302824A78
:1033800014681C40650A114C24682C40012C02D1A1
:1033900015689D43156015680326B5430543156000
:1033A0000B48066804252E430660012901D130BF71
:1033B00002E040BF20BF20BF0168A9430160002C8C
:1033C00002D010681843106070BDC0462000014054
:1033D00010ED00E0F0B587B001252F0201788906D5
:1033E000684C7DD506902907143C2068084005905C
:1033F00002D120680843206003940491624C206845
:10340000384211D1206838432060FFF7C5FB0646DB
:103410002068384208D1FFF7BFFB801B6428F7D92A
:103420000325284607B0F0BD032002900604069845
:10343000446821463140534B4C3B1A68624092022B
:10344000920F04D0B14202D11A689203E9D44D4AD6
:10345000526832402AD08A4228D00178890625D580
:1034600048494A680092EA0401934B6813434B6051
:103470004B6893434B60019B009D2A46B2434A60D0
:103480003D4213D0FFF788FB0546C74C3D484068D6
:10349000800508D4FFF780FB401BA042F6D9029DAF
:1034A000284607B0F0BD06984468019B214631408C
:1034B000B14209D1029A12051440032212051D4699
:1034C0001B68934323432B602E4C62680A4362605F
:1034D0000599002904D1039B1968049A9143196046
:1034E0000368D9070DD1990713D4590719D41907BF
:1034F00020D43B4227D159062ED40025190690D559
:1035000035E021680322914382680A4322609907CB
:10351000EBD521680C229143C2680A432260590707
:10352000E5D50321890222688A430169114321609C
:103530001907DED50321090322688A434169114333
:1035400021603B42D7D00321090422688A43816964
:10355000114321605906D0D50121890622688A438A
:10356000016A114321600025190600D459E703219F
:103570008A0421689143C06908432060284607B047
:10358000F0BDC0464C10024000700040F0B583B062
:103590000290002846D00E46824800680121019121
:1035A0000840B04216D27F4908680125A84330433D
:1035B00008607D4CFFF7F0FA07467A48006828401B
:1035C000B04207D0FFF7E8FAC01BA042F5D90320AC
:1035D00003B0F0BD029800688107814D06D52968C7
:1035E000F0229143029A92680A432A60C0071CD1D4
:1035F0006C48006801273840B04225D969490868FD
:10360000B8430860684CFFF7C7FA0546654800688C
:10361000C00719D0FFF7C0FA401BA042F6D903201B
:1036200003B0F0BD012003B0F0BD02984268294606
:103630000C39012A32D0032A35D0022A39D109683F
:103640008903019833D538E0029800684107644C3B
:1036500007D50721090222688A430299C9681143E4
:103660002160000708D50720C00221688143029825
:103670000069C0000843206021680807820F734872
:103680007A4412795200974401617F6838042146D8
:10369000083909680904490F884075E00968490735
:1036A000019804D509E009688901019805D403B09F
:1036B000F0BD096889050198F9D5296803200190B2
:1036C000814311432960FFF767FA07460298406873
:1036D000354C032811D002281DD0012829D1286893
:1036E0000C210140042900D182E7FFF755FAC01BE5
:1036F000A042F4D9019803B0F0BD28680C21014024
:103700000C2900D174E7FFF747FAC01BA042F4D997
:10371000019803B0F0BD28680C210140082900D1B0
:1037200066E7FFF739FAC01BA042F4D9019803B04D
:10373000F0BD28680007800F00D159E7FFF72CFA89
:10374000C01BA042F5D9019803B0F0BD20460C384B
:103750000068C00612D53F4816E08A02120F3C4BA3
:103760009A5C0902890F491C2368DB0309D42046AF
:103770000C380068C00603D4374802E0364803E03E
:1037800034485043FDF76BF821680906090F074AD2
:10379000515CC8401149086005480068FFF782FD88
:1037A00003B0F0BD002002408813000040C50008AF
:1037B0006C00002009480068094909684905490F5B
:1037C000084A515CC84070470448006804490968C9
:1037D0008904490F034A515CC8407047E81E002025
:1037E0000C10024050C5000810B5834AD168080784
:1037F000830F16487B441B795B009F440108070D2B
:103800000120000451680904490F884010BD106868
:10381000C00613D50F4810BD8B021B0F0C4CE35C88
:103820000902890F491CD468E40303D41068C00658
:1038300006D409485843FDF712F810BD064810BDDC
:1038400004485843FDF70BF810BDC04600127A003B
:10385000E0C7000800093D000024F400F0B589B07D
:10386000002856D0644EF1680C220A4006920121CD
:1038700005910904F76804910F4007900078C0078C
:1038800010D00698082806D006980C2800D0D5E05D
:10389000002F00D1D2E03068800303D5079840683C
:1038A000002851D007980078800735D40798007811
:1038B000C0064CD407980078000766D407990878AA
:1038C000400700D59AE00878800600D521E10798E6
:1038D000846A002C1AD006980C2800D06DE1012CC7
:1038E00032D0F068049A0240079BD96A8A422BD1F1
:1038F0000F21890401401A6B914225D103218905CA
:103900000840596B8842059800D059E2002009B060
:10391000F0BD012009B0F0BD079BD868810604D531
:10392000316820221143316090430699042906D062
:1039300006990C2900D0ACE0002F00D0A9E0316836
:10394000490739D5002837D1059809B0F0BD069848
:10395000002800D1B3E030680799C969002900D177
:1039600007E101210A02104330604C02FFF714F90D
:1039700005463068204200D00EE1FFF70DF9401BEC
:103980000228F6D9032009B0F0BD306D07994969C6
:10399000002900D1DCE0012108433065FFF7FCF885
:1039A0000546306D800789D4FFF7F6F8401B0228E2
:1039B000F7D9032009B0F0BD1F21090272688A43BC
:1039C0001969090211437160316809229143014369
:1039D0003160F1680807820FFA4852007A449288F1
:1039E0005200974403002001DE01260170680004A4
:1039F000410F04988840D4E10010024001221107D1
:103A0000B06B0840029002D1B06B0843B0630191E3
:103A100003921402F24F3868C00525D43868204359
:103A20003860FFF7B9F80546386820421CD1FFF727
:103A3000B3F8411B03206429F6D9C1E10798406817
:103A400005994C040499884209D00521090488424B
:103A500000D0C9E0059880043168014331603068C6
:103A6000049908433060CFE007988068002800D1AF
:103A700022E1052109028842039A00D133E1A042E4
:103A800000D134E1306DA04330659102306D884340
:103A90002FE13168002800D1DDE009229143014384
:103AA0003160FFF779F805463068400700D5F9E046
:103AB000FFF772F8411B03200229F5D980E1306835
:103AC0008005079B03D5D869002800D13CE7072073
:103AD000400371688143586A01437160FF21090600
:103AE00072688A43196A090689187160400B049943
:103AF0008140F0680006000FB64A105CC140B6482D
:103B00000160B6480068FFF7CDFB002800D057E100
:103B1000D0E6B06807998969002900D1ACE001219D
:103B20000843B060706B084370634803AE490A688D
:103B300002430A60FFF730F80546B068800700D5F9
:103B4000C5E6FFF729F8411B03200229F5D937E123
:103B5000012188433065FFF71FF80546306D800767
:103B600000D4ABE6FFF718F8411B03200229F5D972
:103B700026E101210A02904330604C02FFF70CF865
:103B800005463068204200D194E6FFF705F8411B56
:103B900003200229F5D913E107204003716881430E
:103BA000079A506A08437060FF20000671688143DD
:103BB000106A0006401870607CE6012738063168FC
:103BC00081433160FEF7E8FF0546022C00D0AAE0F1
:103BD0007F063068384200D1C1E0FEF7DDFF411BAF
:103BE00003200229F5D9EBE03168049A9143316052
:103BF00031681140089108990599890432688A430F
:103C00003260002800D19CE0FEF7C6FF0546306810
:103C1000204200D046E6FEF7BFFF401B6428F6D9DD
:103C2000032009B0F0BD3068C00600D487E06748C3
:103C3000B7E08A02120F644B9A5C0902890F491C93
:103C4000F368049C234200D0A8E03068C00600D589
:103C5000A3E05F48A2E0012081433160FEF79CFFB2
:103C600005463068400700D420E6FEF795FF411B6B
:103C700003200229F5D9A3E001218843B06048035D
:103C800059490A6882430A60FEF786FF0546B06814
:103C9000800700D41BE6FEF77FFF411B03200229AB
:103CA000F5D98DE01F2000027168814307980069F3
:103CB000000208437060F9E5306DA0433065039A57
:103CC0009002316D814331655402464FFEF764FF27
:103CD0000546306D20421CD0FEF75EFF411B0320DD
:103CE000B942F6D96CE09002316D01433165306D17
:103CF0002043306554023B4FFEF74EFF0546306DC2
:103D0000204206D1FEF748FF411B0320B942F6D9F5
:103D100056E002980028079900D0D4E5B06B019ACC
:103D20009043B063CFE57C063068204200D1EDE5DA
:103D3000FEF732FF411B03200229F5D940E0244859
:103D40002FE0FEF729FF05463068204200D1A9E5A3
:103D5000FEF722FF411B03206429F5D930E0FD2046
:103D60000004F1688143079B2C330DCB08431043BB
:103D70001843F0601D48401C316801433160FEF774
:103D80000BFF04463068384200D0BFE5FEF704FF61
:103D9000011B03200229F5D912E00C485043FCF71F
:103DA0005EFDF1680906090F0A4A515CC8400A49DC
:103DB00008600A480068FFF775FA002800D175E529
:103DC00009B0F0BD00127A00E0C7000800093D000C
:103DD0000024F40040C50008E81E00206C0000200C
:103DE000007000408813000020000140FFFFFF002A
:103DF00080B52948FFF730FA28480179012909D10F
:103E000036498A79521C8A71D2B2112A02D1002213
:103E10008A7102712F498A78002A23D0012A24D17D
:103E2000C978022921D12D49CA79521CCA71D2B24E
:103E3000072A12D30022CA714A78521C4A70007DA8
:103E4000401E032809D8C0467844007940008744C2
:103E50000114171A2048102101701220012101F0CD
:103E60002DFD80BD1C48092101701C480021C17135
:103E70001220012101F022FD80BD1748152104E028
:103E800015481E2101E0144824210170122001214F
:103E900001F014FD80BDC046482800200800002025
:103EA00080B50C488178032901D12A2005E0012939
:103EB00005D1C078032802D109200749087001F014
:103EC000F5FA06480022028105482021FEF75BFE34
:103ED00080BDC046EC1E0020241F0020281F0020AB
:103EE0000004005010B5044600688168C9040DD56F
:103EF000C168C9050AD52046FFF7D2FF2068C1680E
:103F00000E4A0A43012109028A43C260816889047A
:103F10000DD5C06880050AD52046FFF769FF2068E7
:103F2000C168074A0A43012149028A43C26001204D
:103F30004104044A11602121605410BD7FFEFFFF3F
:103F40007FFDFFFF14040140F0B581B0044620203E
:103F5000205C012802D1022001B0F0BD25462035A9
:103F6000022068702068CA224262532242620127FE
:103F70002F707D22D60082683B029942009514D1B1
:103F8000012739028A438260390382688A4382604A
:103F9000FEF702FE05462168C868C0071CD1FEF77F
:103FA000FBFD401BB042F6D912E079028A438260E1
:103FB000790382688A438260FEF7EEFD0546216838
:103FC000C86880070AD4FEF7E7FD401BB042F6D967
:103FD00021680327384602E0002000E00020FF228D
:103FE0004A620021009A1170577001B0F0BDF0B51F
:103FF00000684368180CC8703F261E408E701C0A6B
:104000001F2525404D701F047F0F0F70002A01D01F
:104010000020F0BD0F22134037090A267743FB1812
:104020008B7014402B0973431B194B700240C0B2B4
:10403000000970438018C8700020F0BDF0B581B051
:104040000068836A4B600369164C1C408C600468EE
:104050007F2327461F408F70200C40250540CD70E0
:10406000260A33404B703F2505400D70002A02D0D0
:10407000002001B0F0BD0F22009214403F090A2237
:1040800057433C198C70009C26401B0953439B19D5
:104090004B7020402B09534318180870002001B0C2
:1040A000F0BDC046FF7F0000F0B581B001240028BC
:1040B0002CD00546074620377878002804D1002008
:1040C0003870284600F070F8022078702868CA21FD
:1040D000416253214162C1684906009419D400210C
:1040E000C943C1607D20C400FEF756FD064628681E
:1040F000C16849060DD4FEF74FFD801BA042F6D9DA
:104100002868FF21416204207870009C204601B09D
:10411000F0BD8168234A0A40826069682A690A43BF
:10412000A969114382680A438260E9680161A9684C
:10413000090402690A430261C16880229143C16097
:10414000C16C03229143C164E9696A690A43C16C85
:104150001143C164816889061CD4C168A0229143BF
:10416000C1607D20C400FEF717FD06462868C168BF
:1041700089060FD4FEF710FD801BA042F6D92868EF
:10418000FF2141620020387004207870009C204696
:1041900001B0F0BDFF21416201207870002420466B
:1041A00001B0F0BDBFFF8FFF10B50068094988421C
:1041B00000D010BD0120800407490A6802430A604C
:1041C0000224002120460A46FFF7A6F82046FFF702
:1041D00097F810BD0028004050100240F0B585B09F
:1041E00004462023C05C012802D1022005B0F0BDA6
:1041F0002546203502206870012704952F7020681D
:10420000866840253540002A039704D0002D15D13B
:104210000022CA7014E0002D01D10022CA700D786E
:1042200000220A2D1CD30A3DEEB2CD277743FE0AA9
:104230000A277743ED1B3601103612E0CA781204C4
:104240000D782D044E78360275198E78AD19154308
:10425000CA692A43CB5C1B0613434E691E4347E0E1
:1042600016462E43F5B22E044D780A2D0CD30A3D86
:10427000EFB20296CD267E43F60A0A277743ED1B5E
:104280003701029E103700E017462F43FDB22D0282
:1042900035438E780A2E01920AD30A3EF2B2CD2718
:1042A0005743FF0A0A227A43B61A3F01103700E04B
:1042B0001746CB5C3743FAB21543CA7812042A4337
:1042C00002920A2B039F0AD30A3BDAB2CD2555434B
:1042D000EA0A0A2555435B1B1601103600E0019ED1
:1042E000CA694D6915431E433206029BD6182E43F8
:1042F000CA224262532242624A6802928A69019249
:104300003B027D22D7008268496A994216D1009308
:104310002E490B4680331A408260C268D2B20A43EB
:10432000C260FEF739FC05462168C868C0071FD186
:10433000FEF732FC401BB842F6D914E022490B4686
:1043400080331A408260C268D2B20A43C260FEF76C
:1043500023FC05462168C868800714D4FEF71CFCBE
:10436000401BB842F6D9216803252846049C24E066
:10437000CE61012000030A464432049C039D029B47
:10438000019E009F08E00E62039D68036F020A46CB
:104390004832049C029B019E1E4316608A683A4381
:1043A0008A608A6802438A606804094A1368034382
:1043B00013609368034393600020FF224A62002148
:1043C0002170657005B0F0BD7FFDFFFF7FFEFFFF30
:1043D00000040140F0B585B004462020205C01288F
:1043E00003D10225284605B0F0BD2646203602201E
:1043F0007070012001903070002A049606D0C878B1
:1044000000044A78120216188F783CE04878C206F9
:1044100003D5EF2210400A304870CA7800270A2AD4
:104420000FD30A3AD3B2CD255D43EB0A0A255D438B
:10443000521B1B0110331343DAB20A2806D23B4643
:104440000EE03B461343DAB20A28F8D30A38C3B267
:10445000CD255D43EB0A0A255D43401B1B0110334C
:1044600012040343D8B2060288780A2809D30A380E
:10447000C3B2CD255D43EB0A0A255D43401B1F01F6
:1044800010371643074303972068CA22426253221B
:10449000426209780291C168490611D40021C943DA
:1044A000C1607D20C700FEF777FB05462068C16824
:1044B000490605D4FEF770FB401BB842F6D922E04E
:1044C0000399C9B20E4302994903C02296430E4391
:1044D0004660C16880229143C160816800258906D9
:1044E00015D4C168A0229143C1607D20C700FEF7AA
:1044F00053FB06462068C16889060AD4FEF74CFBC8
:10450000801BB842F6D920680125042202E0019AF6
:1045100000E0019AFF2141620020049908704A706E
:10452000284605B0F0BD0000F0B583B00446202059
:10453000205C012803D10225284603B0F0BD2746A0
:10454000203702207870012000903870206883683E
:1045500040251D40002A0191029704D0002D15D15D
:104560000025CD7014E0002D01D10022CA700A7818
:1045700000260A2A15D30A3AD3B2CD255D43EB0AA9
:104580000A255D43521B1B0110330BE0CA7815044A
:104590000A7812044B781B029A188B78D7182F438D
:1045A0002CE033461343DAB213044A780A2A0DD3B7
:1045B0000A3AD5B23146CD266E43F50A0A266E4335
:1045C000921B0E4601992D01103500E0354615432A
:1045D000EAB212021A438B780A2B09D30A3BDEB2E5
:1045E000CD257543EE0A0A2575435B1B360110364F
:1045F0001E43F3B21A43C9780F041743CA2141621C
:1046000053214162C168490611D40021C943C160E8
:104610007D20C500FEF7C0FA06462068C16849063D
:1046200005D4FEF7B9FA801BA842F6D928E01B4949
:104630000F400760009B990482688A438260019A58
:10464000D16812690A43816811438160C168802280
:104650009143C16081680025890616D4C168A022F3
:104660009143C1607D20C700FEF796FA0646206898
:10467000C168890608D4FEF78FFA801BB842F6D9C4
:1046800020680125042300E0009BFF2141620020F7
:10469000029908704B70284603B0F0BD7F7F7F0001
:1046A0001148016802220A4302607047401E010E51
:1046B00001D00120704707490B4A50600648036843
:1046C0000B400321890759180160002090600721E1
:1046D00011607047FFFFFF0020ED00E00248016815
:1046E000022291430160704710E000E0704770477C
:1046F00070470000F0B589B00368DE691A682021B0
:10470000079205910A40514251410127FD022C4672
:104710002F3408963440203C661EB4410C439E68FA
:1047200062D002A98CC106900246583201950F351D
:10473000089F2F42079807D0E149014001233446E2
:104740001C40611800D090E01023014619404C42F3
:104750004C41394619404F424F410698016E01299C
:1047600004980146039D45D139460029014644D0AD
:104770000029069F45D0012399050E4074427441DB
:104780000899C902014600D52146002900D1EBE075
:104790008021079D29400246484248410899090660
:1047A000114600D50146002900D17BE1402005409B
:1047B0006C426C410899490600D50494049900297B
:1047C00010D1EFF3108183F310883A6813688343A4
:1047D000136081F310880020B8660598B8673846E2
:1047E00000F0D8FC09B0F0BD416E0029FAD088472E
:1047F00009B0F0BD00290146BAD121460029069F23
:10480000B9D12B62A868400600D5B4E05088118861
:104810005288002AE6D0081A0104E3D0EFF3108290
:10482000012181F31088092464013D682E68A643A4
:104830002E6082F31088EFF3108281F310883C68B9
:10484000A5688D43A56082F31088059AFA67002257
:104850007A663A66EFF3108281F3108839680C6843
:104860009C430C6082F31088CEE0190201404E4256
:104870004E41F90704980146039D00D031460029B6
:1048800003D12B62916A1943916266426641B9076E
:10489000014600D53146002905D102212962916ADD
:1048A00004260E43966266426641790701460BD59F
:1048B000314600290AD104212962916A02260E4359
:1048C000966239070CD503E00029F4D0390707D5E3
:1048D00002990C4304D008212962946A0C43946223
:1048E0009906079E0E407442744101990F420DD003
:1048F00020463C4600280CD12962916A0598014364
:104900009162916A0029069E08D16BE73C46002817
:10491000F2D0916A0029069E00D163E71746059AF6
:104920002046104002994C424C410028049800D087
:10493000204600283C4608D1716E002905D030463B
:104940001C46884723463C463568A16A28220A400F
:10495000A9684020014089185CD13046FFF7C8FEA5
:104960000020A06209B0F0BD190529623846FFF7A2
:10497000BEFE09B0F0BD1646386F01684A6894B2B1
:10498000002C00D12EE73088844200D32AE7344639
:10499000728032460968890634D4EFF31081012011
:1049A00080F31088484A20323C682568154025600D
:1049B00081F31088EFF3108180F310883A689468CF
:1049C0008443946081F31088EFF3108180F31088A2
:1049D0003A6894684025AC43946081F31088059947
:1049E000F96700213966EFF3108180F31088386889
:1049F00002689A43026081F31088386FFDF748FD22
:104A0000324630885188401A81B23846FFF76EFE30
:104A100009B0F0BDEFF3108183F310880922520131
:104A20001F4633681C6894431C6081F31088EFF3C1
:104A3000108187F31088326893683D46BB439360CA
:104A400081F31088316E01290AD1EFF3108185F3CB
:104A50001088326813681024A343136081F3108810
:104A60000599F167002131667166316889684906E8
:104A700020D5EFF3108185F3108832689368834363
:104A8000936081F31088306F002813D00D49816343
:104A9000FDF720FD002800D1A4E6306F816B884728
:104AA00009B0F0BDB96E002900D19BE638468847B1
:104AB00009B0F0BD3046FFF71BFE09B0F0BDC0469F
:104AC00020010004FF660008DFFEFFFFF0B583B0A1
:104AD000002841D0044607467437806F002804D16F
:104AE00000203870204600F057F82420A067206886
:104AF00001680125A9430160204601F085FF0128D6
:104B000027D0606A002802D0204601F08FFD0920DE
:104B1000C00221684A6882434A6088682A2290431A
:104B2000886008680126304308600025FD60FEF7B4
:104B300033F8034620680168090713D5154800902B
:104B4000710500222046029302F072F8002807D077
:104B50000325284603B0F0BD0125284603B0F0BD6B
:104B60002068029B006840070CD50A480090B105F8
:104B70000022204602F05CF8002803D003252846D6
:104B800003B0F0BD2020A067E0673D702566284691
:104B900003B0F0BDFFFFFF01F0B587B0054600246C
:104BA0000694059404940394029400684F49884243
:104BB0003DD04F4988425AD0DB49884200D092E02C
:104BC0004C48C16801260496B2040A43C26002211F
:104BD000039102680A4302600068084001900720C0
:104BE000069003200590800202900198444802A993
:104BF000FDF7ECFE7003434E306280201021052249
:104C00003E4B33607260B160F46030617461B461D6
:104C1000F4613046FDF7ECFC002801D0FDF73CF8CC
:104C2000B562EE661D2601210022304656E00125C0
:104C300068043049CA680243CA60086828430860AB
:104C400008682840019004200690032005900494F1
:104C5000022003900C20029001980520000702A971
:104C6000FDF7B4FE1C2630462946224636E0214890
:104C7000816801260496B2030A43826001683143C9
:104C800001600068304001900420069003270597DA
:104C9000122003907002029001980520000702A9DB
:104CA000FDF794FE7003144E306220208021134AD9
:104CB000143284C634607460B160F4603461706131
:104CC000083E3046FDF794FC002801D0FCF7E4FFD5
:104CD000B5622E671B26002130460A46FEF71CFBF4
:104CE0003046FEF70DFB07B0F0BDC0460044004063
:104CF000003801402C100240B42700201C00024064
:104D0000000400506C270020F0B583B013460A461B
:104D10000446C16F0220202912D10125002A0CD09F
:104D2000002B0AD001263103A5688D420CD1D10792
:104D30000AD02169002907D13546284603B0F0BDC5
:104D40000546284603B0F0BD27465837397F01296C
:104D50000546F2D0002525663E77206872498842D4
:104D600013D04068000210D5EFF31080029086F354
:104D70001088B006019020680090016801980143F6
:104D800000980160029880F31088BD623B806265E4
:104D90002220E067206F002815D01E49C1621C49FF
:104DA0000163F9494163856321682431FDF772FC91
:104DB000002808D01020B8623D772020E0673546F3
:104DC000284603B0F0BD3D77EFF31081012080F35A
:104DD0001088020223681E6816431E6081F3108843
:104DE000EFF3108180F31088226893680343936087
:104DF00081F31088EFF3108180F3108820688268B7
:104E000040231343836081F31088284603B0F0BD2C
:104E100051680008C5670008F0B584B0C36F022769
:104E2000202B11D10123002918D0002A16D00124EB
:104E3000250383680395AB420AD1CB0708D00369E9
:104E4000002B05D1234609E03B46184604B0F0BDCF
:104E5000054658352B7F012B3B4602D1184604B03E
:104E6000F0BD002303662C7707682F4EB74213D09E
:104E70007E68360210D5EFF31086029684F3108810
:104E8000A6060196066800963768019E3743009E85
:104E90003760029E86F310886A802A8041654366E7
:104EA000816800290AD022079142039F0CD0B942A1
:104EB0000FD10169002905D184490DE0016900295C
:104EC000039F08D1FF2107E00169002903D03F219A
:104ED00002E0AB8001E07F21A980AB622221C167A3
:104EE000EFF3108184F31088026896682643966079
:104EF00081F310888168B94202D10169002911D07B
:104F00000B492B774166EFF3108184F31088092257
:104F10005201006804681443046081F31088184645
:104F200004B0F0BD0149ECE700480040C16800084A
:104F30006369000880B51D49884206D01C49884233
:104F40001CD01C4988421DD080BD1D48018E4A1CC2
:104F50000286426B1848C37853541A4909782929A4
:104F600006D1C1780D2901D00A2901D10121017191
:104F7000C11C0E480122FFF74FFF80BD0E480121E2
:104F8000017080BD0C48428941790C4B9954521CE8
:104F900042810D2901D00A2901D101218170411DD1
:104FA00004480122FFF738FF80BDC0465828002082
:104FB0000029002084290020281F0020242D002003
:104FC000EC1E0020241F002070470000F0B587B0C1
:104FD0000E460446816F0220202910D10125002EA3
:104FE00018D0002A16D001210F03A568BD420AD1AE
:104FF000F50708D02569002D05D10D460AE00546C4
:10500000284607B0F0BD0497274674373D78012D38
:10501000054602D1284607B0F0BD059302923846F6
:10502000274650370025C560039001702120A067F6
:10503000FDF7B2FD0690029878803880A068049948
:1050400088420AD120690028049601D000210491E9
:105050000028059903D1064601E0049505990398B7
:1050600005700CE0049A108818490840216888628D
:10507000921C04922E4605997888401E7880788884
:10508000002810D000918021002520462A46069B4A
:1050900001F0CEFD002810D1002EE3D03078216839
:1050A0008862761CE7E700914021002520462A46C9
:1050B000069B01F0BDFD002803D00325284607B05C
:1050C000F0BD2020A067284607B0F0BDFF0100001A
:1050D000F0B581B013460446826F0220202A12D117
:1050E000012500290CD0002B0AD001263203A56827
:1050F00095420CD1CA070AD02269002A07D1354649
:10510000284601B0F0BD0546284601B0F0BD27464F
:1051100074373A78012A0546F2D020465030438051
:105120000025FD60E1643E7003802120A067E06EF1
:10513000002815D0164AC262144A0263124A42631A
:10514000856322682832FDF7A5FA002808D01020D0
:10515000F8603D702020A0673546284601B0F0BDBC
:105160003D70206840210162EFF31080012181F33E
:10517000108821688A68802313438B6080F310882D
:10518000284601B0F0BDC04615670008B7680008A2
:105190006D68000870477047F0B585B001902248EF
:1051A0000168090708D40168090705D401680907DF
:1051B00002D401680907F3D50127790202911B4A3D
:1051C000106808431060E74D002628463146FCF77A
:1051D000E5FE3C03601C04901548039003AF28468D
:1051E0003946FCF72FFF049401980390284639466E
:1051F000FCF728FF2846FDF71FF9F1432846FDF785
:1052000087F82846FCF792FF29688A68022313432F
:105210008B6003220A60054B1968029A914319605A
:1052200080B205B0F0BDC0460470004034100240AA
:10523000FFFF0700F0B585B0052000070124E1025B
:10524000002603900D463246FDF79DFC24031B4FBC
:1052500038462146FDF792FC0028F9D137460194E3
:105260000295029C04970125039F384621462A4651
:10527000FDF789FC002238462146FDF784FC0F48E3
:105280000199FDF77BFC401E4142414104984000DA
:105290004718701C172E0646E4D3039E3046029C26
:1052A00021462A46FDF76FFC002230462146FDF7D5
:1052B0006AFCE8054740384605B0F0BD00040050E0
:1052C000FEE70000F0B581B00E4604460068816933
:1052D000C90602D4002001B0F0BD1546416889011D
:1052E00004D40121890342680A43426027464037BB
:1052F000816989060FD4002E38D0711C2FD18169A5
:10530000890608D48169890605D48169890602D491
:1053100081698906F3D51021C1612021C1618169AC
:10532000890701D5002181628169C90703D181699B
:1053300001220A4382614168364A0A4042600420E1
:10534000616C014361642020787000203870B8706F
:10535000012001B0F0BD206881698906DBD4FDF72A
:105360001BFC401BB042F6D92020E9E7FDF714FCF6
:105370002020E5E7F0B581B01546044607464037E2
:10538000002915D00E4620688069400730D4204699
:1053900031462A46FFF796FF002814D1206881691C
:1053A00089061FD4FDF7F8FB401BB042EBD913E090
:1053B0002068806940071BD4002120462A46FFF759
:1053C00081FF002802D0012001B0F0BD2068816972
:1053D000890607D4FDF7E0FB606C20210843606478
:1053E000797012E08169490705D5218D002902D025
:1053F000002001B0F0BD2021C1614268054B13407F
:105400004360002060647970B8700020387001201B
:1054100001B0F0BD00E800FEF0B581B004460068C0
:1054200080690025800711D416460F46002921D037
:10543000781C17D10025E94320463246FFF742FF8A
:1054400000281ED1206880698007F3D5284601B066
:10545000F0BDFDF7A1FB801BB84218D82068806919
:105460008007F3D4204639463246FFF72BFF002849
:10547000EFD006E0002120463246FFF723FF002848
:1054800003D00125284601B0F0BDFDF785FB20467D
:105490004030616C20221143616442700021017030
:1054A00081700125284601B0F0BD00001348016855
:1054B00004220A430260704770B50446FFF70EF9F4
:1054C000012528070C4EF16A0143F162FDF74CFFFC
:1054D000FDF742FFE8033168014331600748016886
:1054E00004220A43026028462946FDF745FFA047EB
:1054F000FFF7D6F870BDC0460C10024000700040A7
:10550000B0B582B02C22174800218154164A0124DC
:10551000816201840423016341638163C163E50700
:1055200024C0016041608460C36001614161FF2269
:10553000C232C261019100910838FCF7FBFD0028DE
:1055400001D0FCF7A9FB0948009020030190054811
:105550006946FCF777FD002801D0FCF79DFB02B0FF
:10556000B0BDC046102700200024014000000244C6
:1055700010B582B00948016801221143016000683A
:105580001040019001980A24002120460A46FDF7A8
:10559000C3FE2046FDF7B4FE02B010BD301002403D
:1055A000F0B58BB000240A9409943D4801680422A8
:1055B000114301600168114005910599016880223D
:1055C00011430160016811400591059901680125A9
:1055D000294301600168294005910599016802226B
:1055E0000392114301600068104005900598052062
:1055F00000070490290201912246FDF7C4FA2948C8
:10560000202102912A46FDF7BEFA089421200004C9
:105610000090079068030690234806AE3146FDF7D8
:10562000D5F9089403270797069720483146FDF7D8
:10563000CDF9089407971E48069004983146FDF767
:10564000C5F9089407971B48069016483146FDF7A0
:10565000BDF9089400980790A803069011483146B8
:10566000FDF7B4F9099708940795019806900498F6
:105670003146FDF7ABF90997089407950298069013
:1056800008483146FDF7A2F9072528460399224626
:10569000FDF742FE2846FDF733FE0BB0F0BDC046D5
:1056A0002C1002400004005000080050001C005064
:1056B000F39C00001FB3000010B512480021012226
:1056C000114B124C046043608160C2600161416112
:1056D0008161C1610162FDF713FB002801D0FCF775
:1056E000DBFA08480021FDF7C7FA002801D0FCF7D3
:1056F000D3FA04480021FDF7E1FA002801D0FCF7B5
:10570000CBFA10BDFC2700205B3D30000054004068
:1057100080B5074807490622074B03604260816055
:10572000C160FDF769FD002801D0FCF7B5FA80BD26
:1057300048280020FF0F000000300040B0B50E48A0
:1057400030220021016242620C220C4B01246503CD
:1057500024038463C5634B24E40118C001604160E5
:105760008160C26001610838FFF7B0F9002801D0FC
:10577000FCF792FAB0BDC04658280020004800400F
:10578000B0B590B000250D950C950B950A9568461F
:105790002821FAF746FD8F48FF217F22264B28C09B
:1057A000026041608560C560056145610838FEF7AB
:1057B0007BFC002801D0FCF76FFA0BA98D700D80DF
:1057C0000F950E9583480122FEF7AEFE002801D00A
:1057D000FCF762FA19480A907E480AA90124224679
:1057E000FEF7F8FD002801D0FCF756FA20206946A4
:1057F0000C54052088700D8003950195049505953E
:10580000069507952002099072482246FEF7E6FCAD
:10581000002801D0FCF740FA694603208870600236
:1058200009906C482246FEF7D9FC002801D0FCF70D
:1058300033FA10B0B0BDC04600280040010101009D
:1058400010B50B48002104220A4B016241624B242F
:10585000E40118C0016041608160C2600161416182
:105860000838FDF79FF9002801D0FCF715FA10BDA4
:105870000029002000380140B0B50E483022002138
:10588000016242620C220C4B0124650324038463F1
:10589000C5634B24E40118C0016041608160C260AF
:1058A000016141610838FFF711F9002801D0FCF7C8
:1058B000F3F9B0BD8429002000440040F0B595B054
:1058C0000D4607460120040204904102012D00917B
:1058D00002D0002D03D121463E48FEF735FB02954C
:1058E00003940BA82421FAF79CFC3A4C06AD002641
:1058F000204629463246FEF7A1FB05A9204601961F
:105900003246FEF774FB34487843C10EE1200001B3
:105910004843381A82B2314B53435C0D3C226243F8
:10592000801AAA7883189AB22D484243D50C0A26C9
:1059300037466F43DB1B2D011D43FE232F461F40BF
:105940005A2F05D306AF7F78E419641C603D02E04E
:1059500006AF7F78E4190BAFBD70A5B24543ED0CDF
:1059600037466F43E71B2C013C4323405A2B05D39A
:1059700006AB1B78C9184B1C603C02E006AB1B78D9
:10598000CB18049A20250BA94A554C709CB2604351
:10599000C00C46439B1B00011843FC230340232BF0
:1059A00000D92438039B029C019D08701295119523
:1059B0000F950E950C95002C00D0009B1493D007EA
:1059C00010900448FEF70AFC002801D0FCF764F9A7
:1059D00015B0F0BDDC280020A391000089880000EC
:1059E000CDCC0000F0B581B0054600782E2800D956
:1059F000C0E229244000C0467844808840008744A3
:105A00002E004000520079008E009800AC00C000CB
:105A1000CB00D600F3000F01230131013B01460109
:105A20005501690174018801B5029B01A701BB0101
:105A3000E601F60106021D022802380241024D026B
:105A400085029802AC02B502BE02D202E6020B0346
:105A5000B90252015E0369039503A903C103F44827
:105A6000816900208847072800D0ADE30120287015
:105A7000FDF792F80146EF4806F04EF8204601B0D7
:105A8000F0BDEB48016C00208847072800D0A0E358
:105A900002202870FDF780F80146E74806F03CF840
:105AA000204601B0F0BDFC48016F00263046884713
:105AB000072800D092E303202870FDF76DF8014617
:105AC000FD4D2A461932FD4806F026F8FC4FFD49E7
:105AD0003846FAF7BDFB002800D1E4E0BE737E73C0
