:020000040800F2
:10000000F00C0020D5000008BD2F0008EB2B0008E5
:1000100000000000000000000000000000000000E0
:10002000000000000000000000000000D12F0008C8
:100030000000000000000000BF2F0008D32F0008C0
:10004000E7000008E7000008E7000008E7000008F4
:10005000E7000008E7000008E7000008A106000824
:10006000E7000008E700000889060008E70000082C
:10007000E7000008E7000008E7000008E7000008C4
:10008000E7000008E7000008E700000800000000A3
:10009000E7000008E7000008E7000008E7000008A4
:1000A000E7000008E7000008E7000008153700082F
:1000B00021370008C12F000800000000E7000008F9
:1000C0000348854600F0CEFA00480047793700081B
:1000D000F00C00200448804704480047FEE7FEE794
:1000E000FEE7FEE7FEE7FEE7DD2F0008C10000089F
:1000F000F0B51FB40646002082B0054640240191A9
:1001000000901BE0019922460F46304600F0F3F9BB
:10011000049A059B801A994110D31046194622462D
:1001200000F0D9F9361A8F410197224601200021AB
:10013000009F00F0D0F938184D4100902046641E11
:100140000028DFDC019B00982946324607B0F0BD4D
:10015000D2B201E00270401C491EFBD2704700225F
:10016000F6E710B513460A4604461946FFF7F0FFB6
:10017000204610BDF0B507460846584087B0C00F6E
:10018000049048000E46590040084908BC1A8841AE
:1001900005D2384631461E4617460B4602465800E1
:1001A000400810434CD0300D039040055900400DDD
:1001B000490D0590401A0290402872DA1803012177
:1001C000000B09050843019004980092002805D00F
:1001D00001995242002088410092019002984021EA
:1001E0000A1A0199009800F076F905460C466B460C
:1001F00007CB00F091F9C0197141039A0E0D00234D
:10020000D71756401A467A40164344D0049A002A1B
:100210002DD0029A012A039A15DC1205C01A9141C9
:1002200001263605001C7141D20F059ED2070093AE
:10023000019202962A46234600F08EF907B0F0BDDF
:1002400038463146FAE71605224A0F46B218C01A58
:10025000B74101210905001C4F4100187F4111469B
:1002600018187941E20F10436D19644113E0E20759
:100270006D0815436408C2071443039A012612054A
:10028000C01A91413605001C7141CE074008304329
:100290004908C01851412A46234600F050F9CDE7DD
:1002A000FFE7049801224000C117121A00238B4176
:1002B00004983146C417381AA141EEE730B401243E
:1002C000E407634030BC55E730B40124E4076140E3
:1002D00030BC4FE70000E0FFF0B51FB488B00B99C9
:1002E0000998002448400999C00F4900490809911C
:1002F000C0070B990090490049080B91099908988B
:10030000A64608431CD00B990A98084318D00998B0
:1003100001244000420D4800410D099824050003C6
:10032000000B204309900B980003000B20430B9017
:1003300050181C494018002201901446104605E050
:10034000002001460DB0F0BD032801DA034600E0AD
:1003500003239C46C11A0AAE0AE05F0008ADED5BBC
:100360004F00F75B7D430027AA187C41491C5B1EA8
:100370006145F2DD410004AB5A522104120C0A43DC
:10038000240C401C0828DFDB01980290009970467D
:1003900001910090059B049A0799069800F0DCF8FB
:1003A000D0E700000DFCFFFFF0B50C465C4085B0C7
:1003B000E40FE40703944C000026640859009446B7
:1003C000490802460296224321D062460A431ED0C3
:1003D0006200570D4A000E032303550D0124024607
:1003E0002C492405781B1B0B360B4018234326434E
:1003F000614600901C46501AB44103D30098401C3B
:10040000009002E0921800985B41002803DA002077
:10041000014605B0F0BD00200121090507468646CA
:1004200011E064461D46141BB54106D36546521BB8
:10043000B341744607430C43A646CD07400849081C
:10044000284392185B4105460D43EAD110461843F4
:1004500013D06046194650407140084306D06046AC
:10046000101AB34106D20122002306E00022012324
:10047000DB0702E00122D2435310009874460105C5
:10048000381C6141029C039D0019694100F057F836
:10049000BFE70000FD03000070B50446002903D04B
:1004A00000202022012310E0002801D00020C043BA
:1004B000C046C0460DE02546D5408D4205D30D46C9
:1004C0009540641B1D46954040191546521E002D4F
:1004D000F1DC214670BD10B5202A04DB0146203A2C
:1004E0009140002010BD914020239C1A0346E34018
:1004F0001943904010BD10B5202A04DB0846203A6D
:10050000D040002110BD0B46D340D0402024A21A79
:1005100091400843194610BD10B5202A06DBCB17C1
:100520000846203A1041C1170B4306E00B46134121
:10053000D0402024A21A91400843194610BD10B59E
:10054000002B08DA0024401C614192185B411A43D9
:1005500001D14008400010BDF0B51FB482B005467F
:100560000C0003D0084603F099FA02E003F096FA73
:1005700020300246009021462846FFF7ACFF049B3E
:10058000059A04460F4618431143084314D01846F1
:1005900010431BD0009840210A1A18460599FFF70E
:1005A000AAFF05460E46009A05990498FFF793FFA7
:1005B000084305D0012004E02046394607B0F0BDCD
:1005C0000020C11705430E432C43374300990E9872
:1005D0006305401A7905E40A00220C43FD0A0A303B
:1005E00002D500200146E9E70105101969410C9C7C
:1005F0000D9D00196941FFF7A2FFDFE74A000903DB
:100600000123090B1B0519430A4B10B5520D9A42E1
:1006100002DA0020014610BD064B34339A4203DC57
:100620009A1AFFF768FF10BD034BD218FFF753FF6C
:1006300010BD0000FF030000CDFBFFFF10B5002937
:1006400004DB0124E40740428C412146002B04DBFB
:100650001C460123DB075242A341994200D190423C
:1006600010BD0000064C0125064E05E0E36807CCEE
:100670002B430C3C98471034B442F7D3FFF724FDCA
:100680004C4400086C44000880B5034800F0BAF9F7
:10069000024800F0B7F980BD200100206801002069
:1006A00010B50124600300F0EDFAA00300F0EAFAAF
:1006B00010BD704770B582B05022825C012A02D111
:1006C000022002B070BD04465034026893685B0794
:1006D00018D40E6849682D4830409D4D2C4B9942E6
:1006E00019D1916A81439162700304D50120C0053C
:1006F000296881432960B00319D501208105286844
:10070000884313E0416D20220A4342650120002105
:10071000217002B070BD916A0143916270030BD4E5
:10072000B00304D501208105286808432860002013
:100730000021217002B070BD0120C005296801436D
:100740002960144800681449FFF7A6FE0A214143B6
:10075000019101980028E3D00198401E0190019872
:100760000028DDD00198401E019001980028D7D0C4
:100770000198401E019001980028D1D00198401E98
:10078000019001980028E7D1CAE7C046FFFF0700A3
:10079000011000006C00002040420F00F0B581B055
:1007A000012500283ED0044606465036406D0028FC
:1007B00003D0606DC00609D52EE000203070A06522
:1007C000204600F0C9F8606DC00625D42068816815
:1007D000490721D481214900626D8A43911C6165DA
:1007E0008168032211405A4B012902D10168C907CF
:1007F0002ED161680125EE07B14205D0AD07A942AF
:1008000002D09507A94210D1920705699543056169
:1008100002690A43026113E000203070606D10210C
:1008200001436165284601B0F0BD0269AA43026137
:100830000F2292041D6895431D601A680A431A60CE
:10084000C16818229143C160A168C2680A43C260AE
:100850002246203201214D061E68AE431E60656BA4
:100860006D061E682E431E608368DB0003D40B07F1
:1008700085681D4385600091C368364D1D40C56085
:1008800023699B1E5D425D41AB00E6681E431578FF
:100890006B033343266B1E43137B5B003343A66914
:1008A000E769B6031E43FB033343C6681E43C660B5
:1008B000676A06460C36FF210B46C2339F4215D1AC
:1008C0005278012A009F1AD00269E36B012B28D1CC
:1008D00089008A430261234640330ECB0A431A4300
:1008E00001691143016102693A431EE0A36A3B4377
:1008F00037681F4337605278012A009FE4D1002DEA
:1009000007D0626D202313436365264658363A4666
:1009100000E03A043368134333600269E36B012B50
:10092000D6D0D10702D00269BA43026141690722D9
:1009300091434161A16B42690A4342610025A5656B
:10094000606D3843022188436065284601B0F0BDE0
:10095000082701401902FEFF00680549884200D0BF
:1009600070470120400203490A6802430A60704749
:10097000002401403410024010B52521425C01469C
:100980002431022A14D1026813680E24A343136091
:1009900013680124A3431360026C406C1C230340C2
:1009A0002046984050604C70002000220A7010BD14
:1009B0000422C263012000220A7010BDB0B52521B7
:1009C000415C02291AD101462431026813680E24C1
:1009D000A343136013680125AB431360026C436C9F
:1009E0001C241C402B46A340536000240C704D7007
:1009F000816B002900D088472046B0BD0421C16327
:100A00000120B0BDF0B585B0016C03910C6806689B
:100A100031680425019129404A424A410490416CC1
:100A20001C230B402F469F403946029421404C42E4
:100A30004C4114432FD0009601200227019E3146DD
:100A400039404D424D419F40029C2742024601469B
:100A500000D0294604980546243500292AD00821CB
:100A60000E4077427741DC40210700D53A46002A04
:100A70001ED1009C22680E218A4322600122114669
:100A80009940039B5960C263002129706A70416BD1
:100A900000290CD10CE03068800602D43068A843ED
:100AA0003060039847600498016B002900D08847A4
:100AB00005B0F0BD009B1968890605D41A680A21A3
:100AC0008A431A60012169700021297003994F60DF
:100AD000C16A0029EBD1EBE7F0B585B0002841D021
:100AE00004460546243502206870204820642668A4
:100AF0001F4830181421FFF7CFFC8000009060647D
:100B000032681C491140274608378CCF6069019034
:100B1000A0690290E0690390206A04901143194390
:100B20003943019801430298014303980143049B10
:100B30001943316001218B039A420DD01C22009889
:100B400010400F2282400C4B1E6896431E60626864
:100B500082401868104318600020E06328706970B4
:100B600005B0F0BD012005B0F0BDC0460000024058
:100B7000F8FFFDBF0F80FFFFA8000240F0B582B074
:100B800004462420255C0220012D2BD0019226460C
:100B90002436012232707778012F21D10220707023
:100BA0000020E0632668376897433760256C00951E
:100BB000676C1C253D401746AF40009D6F60736019
:100BC000A368102B019F00D00F46B760102B00D0F8
:100BD0000199F1603168236B002B05D00E2308E0EA
:100BE0000021317002B0F0BD0423994331603368B5
:100BF0000A211943316031681143316002B0F0BD00
:100C0000B0B5044600F02AF90546601C02D004483D
:100C10000078041900F022F9401BA042FAD3B0BDBD
:100C20006400002010B501214A0390420BD08A03D2
:100C300090420BD11048027A362A08D110484168F8
:100C4000491C416010BD0B480221017110BD094AC9
:100C50009278012AFAD11B22D343084A1478253C02
:100C60009C42F3D8C171092010700548017001F051
:100C7000BDFF10BD7000002004000020A80000206F
:100C80002C00002080B504490A68024202D00860A6
:100C9000FFF7C8FF80BDC04614040140F0B58BB01B
:100CA000099106466548864205D0062009990B68D9
:100CB000002B06D1BFE0052009990B68002B00D15D
:100CC000B9E00B21090772180A21CA410092052ACE
:100CD00000D300900124002203940A920892049603
:100CE00011E019435648C160099803681846E0406E
:100CF000121D641C0A99891C0A910899491C0891C3
:100D0000002800D197E0611E0398079188400340B6
:100D1000EAD00692099A55680326294631404F1EAB
:100D2000012F02951AD8032601940A9CA640059328
:100D3000049B9F68B743D2680A9CA240019C3A4337
:100D40009A60EA06D20F079FBA405F68874317434D
:100D50005F60059BF543089847000BE030460A9A10
:100D60009040C5430329174604D105950A9F314693
:100D7000049E20E0049EF0682840099A9268BA40D8
:100D80000243F2600229059515D11C2006990840FE
:100D90000F218140079AD2089200B218166A8E433A
:100DA000099D296981403143049E1162069A6D684C
:100DB0000321294001E0069A029DB9403068059F51
:100DC000384008433060A803800F8DD01D4E306836
:100DD0000121014331600C2010400F21814003228A
:100DE000079F9743184D7A598A43009981401143D0
:100DF0007951099A124801685068C20301D5194314
:100E000000E099430E4A11605168820301D51943ED
:100E100000E099430A4A51609168C20201D5194322
:100E200000E09943069A064EB160F168800200D551
:100E300057E7994356E70BB0F0BDC046001C005081
:100E4000000401403410024008000140002A02D092
:100E5000182281507047282281507047B748006897
:100E60007047C046F0B583B0002845D00446074619
:100E70007437806F002804D100203870204601F0BC
:100E800023FC2420A067206801680125A943016094
:100E9000204602F08FFA01282BD0606A002802D089
:100EA000204602F0C3F80920C102206842688A4344
:100EB00042608168222291438160816808220A434E
:100EC000826001680126314301600025FD60FFF763
:100ED000C5FF034620680168090713D5154800902F
:100EE000710500222046029302F078FB002807D00B
:100EF0000325284603B0F0BD0125284603B0F0BD08
:100F00002068029B006840070CD50A480090B10594
:100F10000022204602F062FB002803D00325284669
:100F200003B0F0BD2020A067E0673D70256628462D
:100F300003B0F0BDFFFFFF01B0B502464120135CD6
:100F40000220202B19D1134640331C78012C14D0D9
:100F500024205870106802680124A2430260220312
:100F600005689543056002680A43026001682143F1
:100F700001600020187020215970B0BDB0B5024644
:100F80004120135C0220202B19D1134640331C78DA
:100F9000012C14D024205870106802680124A24348
:100FA00002600F221202056895430902294301607D
:100FB0000168214301600020187020215970B0BDE4
:100FC000F0B581B0002822D0044605464035687847
:100FD000002804D100202870204600F045F8242085
:100FE00068702068026801218A4302600F2212069D
:100FF0006368934303618368194A13408360A3685D
:10100000E668012E06D1CE03334383600AE0012057
:1010100001B0F0BD2127BF023B438360022E01D106
:10102000CB02436043680F4E1E434660C3681340C3
:10103000C360226963691343A26912021A43C26042
:10104000E269236A1343036002680A4302600020D6
:101050006064202169702063A87001B0F0BDC046B3
:10106000FF7FFFFF00800002B0B586B00068104926
:10107000884201D006B0B0BD0E4C20680221084362
:101080002060206808400090012505950320049009
:10109000039512200290C02001900098064801A9F3
:1010A000FFF7FCFD6805E1680143E16006B0B0BDF3
:1010B000005400402C10024000040050B0B500283D
:1010C00023D0044600681349016013490160616838
:1010D0004160A1688160FFF7C1FE05462068C168D4
:1010E00049070AD0FFF7BAFE411B20682B29F6D327
:1010F000C1684907F3D00320B0BDE16802698A42A4
:1011000005D1094901600020B0BD0120B0BD0161D9
:101110000020B0BDCCCC000055550000006802494D
:10112000016000207047C046AAAA00001D48007850
:1011300002490A68101808607047C046E808002095
:1011400010B50848016840220A4302600024204686
:1011500000F00AF8002801D0012010BD00F026F8A8
:10116000204610BD0020024070B504467D20C0001E
:101170000C4E3178FFF790F901460B480068FFF7F5
:101180008BF901F031F80125032C08D8002806D18D
:101190000025E84321462A4600F020F874602846DE
:1011A00070BDC046640000206C0000200448016847
:1011B000012211430160110742680A4342607047EF
:1011C00034100240002805D41F210840012181402D
:1011D000014801607047C04600E100E0002805D4E6
:1011E0000322034693430C4A9A1806E00F2202405A
:1011F000083A03239A43074BD2188007C00E89018F
:10120000C9B28140FF2383401068984308431060AF
:101210007047C0461CED00E000E400E0F0B587B088
:1012200001252F0201788906684C7DD50690290793
:10123000143C20680840059002D1206808432060D3
:1012400003940491624C2068384211D120683843DD
:101250002060FFF703FE06462068384208D1FFF7FA
:10126000FDFD801B6428F7D90325284607B0F0BD93
:101270000320029006040698446821463140534BEF
:101280004C3B1A6862409202920F04D0B14202D1E4
:101290001A689203E9D44D4A526832402AD08A42F1
:1012A00028D00178890625D548494A680092EA0481
:1012B00001934B6813434B604B6893434B60019B16
:1012C000009D2A46B2434A603D4213D0FFF7C6FD57
:1012D0000546C74C3D484068800508D4FFF7BEFD71
:1012E000401BA042F6D9029D284607B0F0BD0698E3
:1012F0004468019B21463140B14209D1029A12054E
:101300001440032212051D461B68934323432B60A0
:101310002E4C62680A4362600599002904D1039B40
:101320001968049A914319600368D9070DD1990788
:1013300013D4590719D4190720D43B4227D1590691
:101340002ED40025190690D535E02168032291435B
:1013500082680A4322609907EBD521680C229143E9
:10136000C2680A4322605907E5D503218902226831
:101370008A430169114321601907DED5032109035E
:1013800022688A434169114321603B42D7D003213F
:10139000090422688A438169114321605906D0D526
:1013A0000121890622688A43016A114321600025D0
:1013B000190600D459E703218A0421689143C069C2
:1013C00008432060284607B0F0BDC0464C100240DC
:1013D00000700040F0B583B00290002846D00E4661
:1013E00082480068012101910840B04216D27F492D
:1013F00008680125A843304308607D4CFFF72EFDA7
:1014000007467A4800682840B04207D0FFF726FD1B
:10141000C01BA042F5D9032003B0F0BD02980068BC
:101420008107814D06D52968F0229143029A92687E
:101430000A432A60C0071CD16C4800680127384065
:10144000B04225D969490868B8430860684CFFF77D
:1014500005FD054665480068C00719D0FFF7FEFC8A
:10146000401BA042F6D9032003B0F0BD012003B019
:10147000F0BD0298426829460C39012A32D0032A6D
:1014800035D0022A39D109688903019833D538E06B
:10149000029800684107644C07D5072109022268B9
:1014A0008A430299C96811432160000708D50720C3
:1014B000C0022168814302980069C000084320608F
:1014C00021680807820F73487A44127952009744C2
:1014D00001617F6838042146083909680904490F09
:1014E000884075E009684907019804D509E0096852
:1014F0008901019805D403B0F0BD096889050198F8
:10150000F9D5296803200190814311432960FFF731
:10151000A5FC074602984068354C032811D00228E4
:101520001DD0012829D128680C210140042900D1AF
:1015300082E7FFF793FCC01BA042F4D9019803B0E7
:10154000F0BD28680C2101400C2900D174E7FFF799
:1015500085FCC01BA042F4D9019803B0F0BD2868F7
:101560000C210140082900D166E7FFF777FCC01B7A
:10157000A042F4D9019803B0F0BD28680007800F9D
:1015800000D159E7FFF76AFCC01BA042F5D90198CA
:1015900003B0F0BD20460C380068C00612D53F48A5
:1015A00016E08A02120F3C4B9A5C0902890F491C13
:1015B0002368DB0309D420460C380068C00603D436
:1015C000374802E0364803E034485043FEF764FFF2
:1015D00021680906090F074A515CC8401149086093
:1015E00005480068FFF7C0FD03B0F0BD00200240D1
:1015F00088130000B4430008680000200948006810
:10160000094909684905490F084A515CC8407047B3
:1016100004480068044909688904490F034A515C79
:10162000C84070476C0000200C100240C443000802
:1016300010B5834AD1680807830F16487B441B798D
:101640005B009F440108070D012000045168090454
:10165000490F884010BD1068C00613D50F4810BD53
:101660008B021B0F0C4CE35C0902890F491CD468E8
:10167000E40303D41068C00606D409485843FEF7B3
:101680000BFF10BD064810BD04485843FEF704FF89
:1016900010BDC04600127A00CC43000800093D008E
:1016A0000024F400F0B589B0002856D0644EF168EB
:1016B0000C220A400692012105910904F768049161
:1016C0000F4007900078C00710D00698082806D071
:1016D00006980C2800D0D5E0002F00D1D2E0306869
:1016E000800303D507984068002851D007980078F8
:1016F000800735D407980078C0064CD40798007846
:10170000000766D407990878400700D59AE0087862
:10171000800600D521E10798846A002C1AD006982B
:101720000C2800D06DE1012C32D0F068049A024000
:10173000079BD96A8A422BD10F21890401401A6B79
:10174000914225D1032189050840596B88420598AB
:1017500000D059E2002009B0F0BD012009B0F0BD71
:10176000079BD868810604D5316820221143316077
:1017700090430699042906D006990C2900D0ACE0C4
:10178000002F00D0A9E03168490739D5002837D1AA
:10179000059809B0F0BD0698002800D1B3E0306884
:1017A0000799C969002900D107E101210A02104304
:1017B00030604C02FFF752FB05463068204200D0F3
:1017C0000EE1FFF74BFB401B0228F6D9032009B0BE
:1017D000F0BD306D07994969002900D1DCE0012195
:1017E00008433065FFF73AFB0546306D800789D422
:1017F000FFF734FB401B0228F7D9032009B0F0BDE6
:101800001F21090272688A43196909021143716034
:1018100031680922914301433160F1680807820F62
:10182000FA4852007A4492885200974403002001FB
:10183000DE01260170680004410F04988840D4E15D
:101840000010024001221107B06B0840029002D143
:10185000B06B0843B063019103921402F24F3868F1
:10186000C00525D4386820433860FFF7F7FA0546ED
:10187000386820421CD1FFF7F1FA411B032064298C
:10188000F6D9C1E10798406805994C04049988424B
:1018900009D005210904884200D0C9E005988004D8
:1018A0003168014331603068049908433060CFE00B
:1018B00007988068002800D122E1052109028842AA
:1018C000039A00D133E1A04200D134E1306DA0434E
:1018D00030659102306D88432FE13168002800D1D6
:1018E000DDE00922914301433160FFF7B7FA054675
:1018F0003068400700D5F9E0FFF7B0FA411B03203C
:101900000229F5D980E130688005079B03D5D869A5
:10191000002800D13CE70720400371688143586AE2
:1019200001437160FF21090672688A43196A09063A
:1019300089187160400B04998140F0680006000F1F
:10194000B64A105CC140B6480160B6480068FFF76F
:101950000BFC002800D057E1D0E6B06807998969F0
:10196000002900D1ACE001210843B060706B08434E
:1019700070634803AE490A6802430A60FFF76EFAD3
:101980000546B068800700D5C5E6FFF767FA411B3A
:1019900003200229F5D937E1012188433065FFF79B
:1019A0005DFA0546306D800700D4ABE6FFF756FAC6
:1019B000411B03200229F5D926E101210A029043A7
:1019C00030604C02FFF74AFA05463068204200D1E9
:1019D00094E6FFF743FA411B03200229F5D913E1EE
:1019E0000720400371688143079A506A084370607A
:1019F000FF20000671688143106A0006401870607D
:101A00007CE601273806316881433160FFF726FA0A
:101A10000546022C00D0AAE07F063068384200D18B
:101A2000C1E0FFF71BFA411B03200229F5D9EBE0C7
:101A30003168049A914331603168114008910899E6
:101A40000599890432688A433260002800D19CE0FD
:101A5000FFF704FA05463068204200D046E6FFF75B
:101A6000FDF9401B6428F6D9032009B0F0BD3068A9
:101A7000C00600D487E06748B7E08A02120F644BC3
:101A80009A5C0902890F491CF368049C234200D028
:101A9000A8E03068C00600D5A3E05F48A2E00120BE
:101AA00081433160FFF7DAF905463068400700D41A
:101AB00020E6FFF7D3F9411B03200229F5D9A3E063
:101AC00001218843B060480359490A6882430A608B
:101AD000FFF7C4F90546B068800700D41BE6FFF79E
:101AE000BDF9411B03200229F5D98DE01F2000021A
:101AF0007168814307980069000208437060F9E546
:101B0000306DA0433065039A9002316D8143316599
:101B10005402464FFFF7A2F90546306D20421CD013
:101B2000FFF79CF9411B0320B942F6D96CE0900203
:101B3000316D01433165306D2043306554023B4FB8
:101B4000FFF78CF90546306D204206D1FFF786F984
:101B5000411B0320B942F6D956E0029800280799A4
:101B600000D0D4E5B06B019A9043B063CFE57C061A
:101B70003068204200D1EDE5FFF770F9411B0320EA
:101B80000229F5D940E024482FE0FFF767F9054620
:101B90003068204200D1A9E5FFF760F9411B03201E
:101BA0006429F5D930E0FD200004F1688143079BEA
:101BB0002C330DCB084310431843F0601D48401CE4
:101BC000316801433160FFF749F904463068384213
:101BD00000D0BFE5FFF742F9011B03200229F5D928
:101BE00012E00C485043FEF757FCF1680906090F54
:101BF0000A4A515CC8400A4908600A480068FFF771
:101C0000B3FA002800D175E509B0F0BD00127A00E2
:101C1000CC43000800093D000024F400B443000850
:101C20006C00002068000020007000408813000055
:101C300020000140FFFFFF00F0B581B00124002823
:101C40002CD00546074620377878002804D100209C
:101C50003870284600F070F8022078702868CA2191
:101C6000416253214162C1684906009419D40021A0
:101C7000C943C1607D20C400FFF7F0F8064628681C
:101C8000C16849060DD4FFF7E9F8801BA042F6D9D8
:101C90002868FF21416204207870009C204601B032
:101CA000F0BD8168234A0A40826069682A690A4354
:101CB000A969114382680A438260E9680161A968E1
:101CC000090402690A430261C16880229143C1602C
:101CD000C16C03229143C164E9696A690A43C16C1A
:101CE0001143C164816889061CD4C168A022914354
:101CF000C1607D20C400FFF7B1F806462868C168BE
:101D000089060FD4FFF7AAF8801BA042F6D92868ED
:101D1000FF2141620020387004207870009C20462A
:101D200001B0F0BDFF2141620120787000242046FF
:101D300001B0F0BDBFFF8FFF00680549884200D0A9
:101D400070470120800403490A6802430A60704713
:101D50000028004050100240F0B585B00446202312
:101D6000C05C012802D1022005B0F0BD2546203517
:101D700002206870012704952F702068866840252E
:101D80003540002A039704D0002D15D10022CA70D7
:101D900014E0002D01D10022CA700D7800220A2D16
:101DA0001CD30A3DEEB2CD277743FE0A0A277743BC
:101DB000ED1B3601103612E0CA7812040D782D049E
:101DC0004E78360275198E78AD191543CA692A43C3
:101DD000CB5C1B0613434E691E4347E016462E4359
:101DE000F5B22E044D780A2D0CD30A3DEFB20296BF
:101DF000CD267E43F60A0A277743ED1B3701029E64
:101E0000103700E017462F43FDB22D0235438E7880
:101E10000A2E01920AD30A3EF2B2CD275743FF0A97
:101E20000A227A43B61A3F01103700E01746CB5C0E
:101E30003743FAB21543CA7812042A4302920A2B96
:101E4000039F0AD30A3BDAB2CD255543EA0A0A2595
:101E500055435B1B1601103600E0019ECA694D69AF
:101E600015431E433206029BD6182E43CA224262F5
:101E7000532242624A6801928A6900923D027D22A1
:101E80003B46D7008268496AA94215D102950121D3
:101E90000B029A438260090382688A438260FEF7DC
:101EA000DDFF05462168C868C0071ED1FEF7D6FFD2
:101EB000401BB842F6D913E0590202918A4382606E
:101EC000590382688A438260FEF7C8FF054621688D
:101ED000C86880070DD4FEF7C1FF401BB842F6D991
:101EE000216803242046049B11E0CE61084644305B
:101EF00002E00E6208464830049B039C029A019D52
:101F0000009E2E4306608868104388600020FF22F0
:101F10004A62002119705C7005B0F0BDF0B585B063
:101F200004462020205C012803D10225284605B064
:101F3000F0BD2646203602207070012001903070DE
:101F4000002A049606D0C87800044A7812021618AF
:101F50008F783CE04878C20603D5EF2210400A3063
:101F60004870CA7800270A2A0FD30A3AD3B2CD257F
:101F70005D43EB0A0A255D43521B1B0110331343DB
:101F8000DAB20A2806D23B460EE03B461343DAB2E9
:101F90000A28F8D30A38C3B2CD255D43EB0A0A25D7
:101FA0005D43401B1B01103312040343D8B20602E9
:101FB00088780A2809D30A38C3B2CD255D43EB0AD5
:101FC0000A255D43401B1F01103716430743039743
:101FD0002068CA2242625322426209780291C16893
:101FE000490611D40021C943C1607D20C700FEF716
:101FF00035FF05462068C168490605D4FEF72EFF67
:10200000401BB842F6D922E00399C9B20E430299A7
:102010004903C02296430E434660C1688022914323
:10202000C16081680025890615D4C168A02291434A
:10203000C1607D20C700FEF711FF06462068C16819
:1020400089060AD4FEF70AFF801BB842F6D9206839
:102050000125042202E0019A00E0019AFF21416279
:102060000020049908704A70284605B0F0BD0000B1
:10207000F0B583B004462020205C012803D102255E
:10208000284603B0F0BD2746203702207870012093
:10209000009038702068836840251D40002A019117
:1020A000029704D0002D15D10025CD7014E0002D2D
:1020B00001D10022CA700A7800260A2A15D30A3AEA
:1020C000D3B2CD255D43EB0A0A255D43521B1B01AC
:1020D00010330BE0CA7815040A7812044B781B02FF
:1020E0009A188B78D7182F432CE033461343DAB273
:1020F00013044A780A2A0DD30A3AD5B23146CD26BE
:102100006E43F50A0A266E43921B0E4601992D0175
:10211000103500E035461543EAB212021A438B78B7
:102120000A2B09D30A3BDEB2CD257543EE0A0A25F8
:1021300075435B1B360110361E43F3B21A43C97850
:102140000F041743CA21416253214162C168490605
:1021500011D40021C943C1607D20C500FEF77EFE79
:1021600006462068C168490605D4FEF777FE801B45
:10217000A842F6D928E01B490F400760009B99044C
:1021800082688A438260019AD16812690A43816831
:1021900011438160C16880229143C160816800253C
:1021A000890616D4C168A0229143C1607D20C70072
:1021B000FEF754FE06462068C168890608D4FEF77B
:1021C0004DFE801BB842F6D920680125042300E0AB
:1021D000009BFF2141620020029908704B70284645
:1021E00003B0F0BD7F7F7F00401E010E01D00120B3
:1021F00070470749074A5060074803680B400321AE
:10220000890759180160002090600721116070470C
:10221000FFFFFF0010E000E020ED00E07047704796
:1022200070470000F0B589B00368DE691A682021A4
:10223000079205910A40514251410127FD022C4667
:102240002F3408963440203C661EB4410C439E68EF
:1022500062D002A98CC106900246583201950F3512
:10226000089F2F42079807D0E149014001233446D7
:102270001C40611800D090E01023014619404C42E8
:102280004C41394619404F424F410698016E012991
:1022900004980146039D45D139460029014644D0A2
:1022A0000029069F45D0012399050E4074427441D0
:1022B0000899C902014600D52146002900D1EBE06A
:1022C0008021079D29400246484248410899090655
:1022D000114600D50146002900D17BE14020054090
:1022E0006C426C410899490600D504940499002970
:1022F00010D1EFF3108183F310883A681368834399
:10230000136081F310880020B8660598B8673846D6
:1023100000F06AFC09B0F0BD416E0029FAD0884790
:1023200009B0F0BD00290146BAD121460029069F17
:10233000B9D12B62A868400600D5B4E05088118856
:102340005288002AE6D0081A0104E3D0EFF3108285
:10235000012181F31088092464013D682E68A64399
:102360002E6082F31088EFF3108281F310883C68AE
:10237000A5688D43A56082F31088059AFA6700224C
:102380007A663A66EFF3108281F3108839680C6838
:102390009C430C6082F31088CEE0190201404E424B
:1023A0004E41F90704980146039D00D031460029AB
:1023B00003D12B62916A1943916266426641B90763
:1023C000014600D53146002905D102212962916AD2
:1023D00004260E43966266426641790701460BD594
:1023E000314600290AD104212962916A02260E434E
:1023F000966239070CD503E00029F4D0390707D5D8
:1024000002990C4304D008212962946A0C43946217
:102410009906079E0E407442744101990F420DD0F7
:1024200020463C4600280CD12962916A0598014358
:102430009162916A0029069E08D16BE73C4600280C
:10244000F2D0916A0029069E00D163E71746059AEB
:102450002046104002994C424C410028049800D07C
:10246000204600283C4608D1716E002905D0304630
:102470001C46884723463C463568A16A28220A4004
:10248000A9684020014089185CD13046FFF7C8FE9A
:102490000020A06209B0F0BD190529623846FFF797
:1024A000BEFE09B0F0BD1646386F01684A6894B2A6
:1024B000002C00D12EE73088844200D32AE734462E
:1024C000728032460968890634D4EFF31081012006
:1024D00080F31088484A20323C6825681540256002
:1024E00081F31088EFF3108180F310883A689468C4
:1024F0008443946081F31088EFF3108180F3108897
:102500003A6894684025AC43946081F3108805993B
:10251000F96700213966EFF3108180F3108838687D
:1025200002689A43026081F31088386FFEF724FA3C
:10253000324630885188401A81B23846FFF76EFE25
:1025400009B0F0BDEFF3108183F310880922520126
:102550001F4633681C6894431C6081F31088EFF3B6
:10256000108187F31088326893683D46BB439360BF
:1025700081F31088316E01290AD1EFF3108185F3C0
:102580001088326813681024A343136081F3108805
:102590000599F167002131667166316889684906DD
:1025A00020D5EFF3108185F3108832689368834358
:1025B000936081F31088306F002813D00D49816338
:1025C000FEF7FCF9002800D1A4E6306F816B884744
:1025D00009B0F0BDB96E002900D19BE638468847A6
:1025E00009B0F0BD3046FFF71BFE09B0F0BDC04694
:1025F00020010004FF300008DFFEFFFFF0B583B0CC
:10260000002841D0044607467437806F002804D163
:1026100000203870204600F057F82420A06720687A
:1026200001680125A9430160204600F0C3FE01288E
:1026300027D0606A002802D0204600F0F7FC09206D
:10264000C00221684A6882434A6088682A2290430F
:10265000886008680126304308600025FD60FEF7A9
:10266000FDFB034620680168090713D51548009053
:10267000710500222046029300F0B0FF002807D029
:102680000325284603B0F0BD0125284603B0F0BD60
:102690002068029B006840070CD50A480090B105ED
:1026A0000022204600F09AFF002803D00325284688
:1026B00003B0F0BD2020A067E0673D702566284686
:1026C00003B0F0BDFFFFFF01F0B587B00546002461
:1026D0000694059404940394029400684F49884238
:1026E0003DD04F4988425AD0DC49884200D092E020
:1026F0004C48C16801260496B2040A43C260022114
:10270000039102680A4302600068084001900720B4
:10271000069003200590800202900198444802A987
:10272000FEF7BCFA7003434E306280201021052270
:102730003E4B33607260B160F46030617461B461CB
:10274000F4613046FEF7C8F9002801D0FDF7B1FF6B
:10275000B562EE661D2601210022304656E00125B5
:1027600068043049CA680243CA60086828430860A0
:1027700008682840019004200690032005900494E6
:10278000022003900C20029001980520000702A966
:10279000FEF784FA1C2630462946224636E02148B8
:1027A000816801260496B2030A43826001683143BE
:1027B00001600068304001900420069003270597CF
:1027C000122003907002029001980520000702A9D0
:1027D000FEF764FA7003144E306220208021134A01
:1027E000143284C634607460B160F4603461706126
:1027F000083E3046FEF770F9002801D0FDF759FF7A
:10280000B5622E671B26002130460A46FEF7E6FC1D
:102810003046FEF7D7FC07B0F0BDC046004400408C
:10282000003801402C100240680100201C000240CA
:102830000004005020010020F0B583B013460A4682
:102840000446C16F0220202912D10125002A0CD094
:10285000002B0AD001263103A5688D420CD1D10787
:102860000AD02169002907D13546284603B0F0BDBA
:102870000546284603B0F0BD27465837397F012961
:102880000546F2D0002525663E77206873498842C8
:1028900013D04068000210D5EFF31080029086F349
:1028A0001088B006019020680090016801980143EB
:1028B00000980160029880F31088BD623B806265D9
:1028C0002220E067206F002815D01F49C1621D49F2
:1028D00001631B494163856321682431FEF74EF98A
:1028E000002808D01020B8623D772020E0673546E8
:1028F000284603B0F0BD3D77EFF31081012080F34F
:102900001088020223681E6816431E6081F3108837
:10291000EFF3108180F3108822689368034393607B
:1029200081F31088EFF3108180F3108820688268AB
:1029300040231343836081F31088284603B0F0BD21
:102940001531000851320008C5310008F0B584B0D7
:10295000C36F0227202B11D10123002918D0002A90
:1029600016D00124250383680395AB420AD1CB0717
:1029700008D00369002B05D1234609E03B461846E1
:1029800004B0F0BD054658352B7F012B3B4602D1E4
:10299000184604B0F0BD002303662C7707682F4E5D
:1029A000B74213D07E68360210D5EFF31086029638
:1029B00084F31088A6060196066800963768019E83
:1029C0003743009E3760029E86F310886A802A8013
:1029D00041654366816800290AD022079142039F1E
:1029E0000CD0B9420FD10169002905D17D490DE014
:1029F00001690029039F08D1FF2107E0016900292F
:102A000003D03F2102E0AB8001E07F21A980AB62CF
:102A10002221C167EFF3108184F310880268966861
:102A20002643966081F310888168B94202D101691A
:102A3000002911D00B492B774166EFF3108184F305
:102A4000108809225201006804681443046081F36D
:102A50001088184604B0F0BD0149ECE7004800407A
:102A60006D3200080F33000880B51749884206D040
:102A70001649884211D01649884212D080BD1748A5
:102A8000018E4A1C0286406B124A93784354911C73
:102A9000F8480122FFF75AFF80BD0E48012101705E
:102AA00080BD0C480289C1780B4B9954521C02819D
:102AB0000D2901D00A2901D101214170C11C04480E
:102AC0000122FFF743FF80BD0C020020B40200206A
:102AD00038030020B0000020BC050020700000205A
:102AE00070470000F0B587B00E460446816F0220A3
:102AF000202910D10125002E18D0002A16D001213E
:102B00000F03A568BD420AD1F50708D02569002D3D
:102B100005D10D460AE00546284607B0F0BD0497EA
:102B2000274674373D78012D054602D1284607B067
:102B3000F0BD059302923846274650370025C56000
:102B4000039001702120A067FEF788F90690029893
:102B500078803880A068049988420AD120690028CA
:102B6000049601D0002104910028059903D106465E
:102B700001E004950599039805700CE0049A10880B
:102B80001849084021688862921C04922E460599D3
:102B90007888401E78807888002810D000918021A5
:102BA000002520462A46069B00F018FD002810D17B
:102BB000002EE3D0307821688862761CE7E7009128
:102BC0004021002520462A46069B00F007FD0028EC
:102BD00003D00325284607B0F0BD2020A067284673
:102BE00007B0F0BDFF0100007047FEE70248016832
:102BF00004220A430260704700700040B0B582B002
:102C00002C22174800218154164A01248162018434
:102C10000423016341638163C163E50724C001604C
:102C200041608460C36001614161FF22C232C261C0
:102C3000019100910838FDF7B1FD002801D0FDF7A2
:102C400038FD094800902003019005486946FDF7CA
:102C500031FD002801D0FDF72CFD02B0B0BDC0460B
:102C6000C4000020002401400000024410B582B0DE
:102C70000948016801221143016000681040019079
:102C800001980A24002120460A46FEF7A7FA2046AA
:102C9000FEF798FA02B010BD30100240F0B58BB0CC
:102CA00000240A9409943D480168042211430160FC
:102CB0000168114005910599016880221143016066
:102CC00001681140059105990168012529430160BA
:102CD0000168294005910599016802220392114378
:102CE00001600068104005900598052000070490D9
:102CF000290201912246FEF7A9F8294820210291D4
:102D00002A46FEF7A3F808942120000400900790BB
:102D100068030690234806AE3146FDF7BFFF0894CE
:102D200003270797069720483146FDF7B7FF089419
:102D300007971E48069004983146FDF7AFFF0894A8
:102D400007971B48069016483146FDF7A7FF0894E1
:102D500000980790A803069011483146FDF79EFFA2
:102D60000997089407950198069004983146FDF755
:102D700095FF0997089407950298069008483146F0
:102D8000FDF78CFF0725284603992246FEF726FA11
:102D90002846FEF717FA0BB0F0BDC0462C100240D3
:102DA0000004005000080050001C0050F39C00007C
:102DB0001FB3000010B5124800210122114B124C24
:102DC000046043608160C260016141618161C161F1
:102DD0000162FEF7F5F8002801D0FDF76AFC08480B
:102DE0000021FEF7A9F8002801D0FDF762FC044895
:102DF0000021FEF7C3F8002801D0FDF75AFC10BDF2
:102E0000B00100205B3D30000054004080B5074811
:102E100007490622074B036042608160C160FEF7EC
:102E20004DF9002801D0FDF744FC80BDFC010020D5
:102E3000FF0F000000300040B0B564483022002190
:102E4000016242620C220C4B01246503240384635B
:102E5000C5634B24E40118C0016041608160C26019
:102E600001610838FFF7CAFB002801D0FDF721FCFB
:102E7000B0BDC0460C02002000480040B0B590B084
:102E800000250D950C950B950A9568462821FDF7B0
:102E900066F92848FF217F22274B28C00260416045
:102EA0008560C560056145610838FEF7C5FE0028EC
:102EB00001D0FDF7FEFB0BA98D700D800F950E95CF
:102EC0001C480122FFF7D4F8002801D0FDF7F1FBE0
:102ED0001A480A9017480AA901242246FFF71EF84B
:102EE000002801D0FDF7E5FB202069460C540320A3
:102EF00088700D80039501950495059506950795B5
:102F0000200209900B482246FEF726FF002801D038
:102F1000FDF7CFFB694605208870600209900548DF
:102F20002246FEF719FF002801D0FDF7C2FB10B0C2
:102F3000B0BDC04690020020002800400101010001
:102F400010B50B48002104220A4B016241624B2458
:102F5000E40118C0016041608160C26001614161AB
:102F60000838FDF77FFF002801D0FDF7A2FB10BD58
:102F7000B402002000380140B0B50E4830220021D4
:102F8000016242620C220C4B01246503240384631A
:102F9000C5634B24E40118C0016041608160C260D8
:102FA000016141610838FFF729FB002801D0FDF7D6
:102FB00080FBB0BD380300200044004070477047DC
:102FC00080B50248FFF72EF980BDC0460C020020F4
:102FD000704780B5FEF7AAF880BD0000012002020C
:102FE0000E490B6813430B60CA680D4B1340CB604E
:102FF0000A680C4B13400B608A6882438A60820423
:103000000B6893430B60FD221204CB689343CB60A3
:1030100000220A61C006044908607047001002409F
:103020000C40FF88F6FFF6FE08ED00E0B0B5416AFF
:10303000CA070CD18A0714D44A071CD40A0724D41F
:10304000CA062CD48A0634D44A063CD44CE0012269
:10305000520403685C689443826A22435A608A0778
:10306000EAD50122120403685C689443C26A2243D1
:103070005A604A07E2D50122920403685C689443CF
:10308000026B22435A600A07DAD50122D203036891
:103090005C689443426B22435A60CA06D2D501222F
:1030A000120303689C689443826B22439A608A06E9
:1030B000CAD50122520303689C689443C26B224321
:1030C0009A604A0610D501221305026854689C4391
:1030D000056C2C4354609D4206D103235B05546864
:1030E0009C43436C23435360090607D50121C9045F
:1030F000026853688B43806C18435060B0BD80B544
:10310000806A0146523100220A8152214252FFF761
:1031100087F880BDF0B581B0806A816FC36F0246C9
:1031200052320468A5682D0612D5212910D100213C
:103130001180EFF31081012484F31088046825685E
:10314000C026B543256081F310882021816704687B
:1031500001468031A46864062CD5222B2AD1002395
:103160001381EFF31084012282F3108809256D0189
:1031700006683768AF43376084F31088EFF3108434
:1031800082F310880568AE689643AE6084F31088B9
:10319000046E012C0AD1EFF3108482F310880268C8
:1031A00015681026B543156084F310882022C26785
:1031B000436603660A68102313430B60FFF730F879
:1031C00001B0F0BD70B50146806A02465832096808
:1031D0000968890632D400215180EFF31083012160
:1031E00081F310880C0205682E68A6432E6083F3D5
:1031F0001088EFF3108381F310880468A5688D436D
:10320000A56083F31088EFF3108381F310880468BE
:10321000A5684026B543A56083F310882023C367C3
:10322000036E012B0AD1EFF3108381F3108801683C
:103230000C681025AC430C6083F31088016E0129E3
:1032400003D11188FEF7EAFF70BDFFF70DFC70BDDA
:1032500080B5806A016E012905D15821415A49087B
:10326000FEF7DCFF80BDFFF73BFC80BD70B55C2145
:10327000435A0268C16F22290ED101465831526A61
:103280001340426D13804B885B1E4B80921C42653D
:103290004A88002A05D070BD9069082101439161D8
:1032A00070BDEFF31083012282F3108809246401BA
:1032B00005682E68A6432E6083F31088EFF3108311
:1032C00082F310880468A5689543A56083F310888D
:1032D0002023C36700234366046E012C14D10366C8
:1032E000EFF3108382F31088046825681022954359
:1032F000256083F310880368DC69E40600D51A6250
:103300000988FEF78BFF70BDFFF7AEFB70BD70B58F
:103310005C21435A0268C16F22290FD101465831FE
:10332000526A1A40436D1A704A88521E4A80426D92
:10333000521C42654A88002A05D070BD9069082158
:103340000143916170BDEFF31083012282F3108875
:103350000924640105682E68A6432E6083F3108853
:10336000EFF3108382F310880468A5689543A56085
:1033700083F310882023C36700234366046E012C67
:1033800014D10366EFF3108382F310880468256874
:1033900010229543256083F310880368DC69E406F6
:1033A00000D51A620988FEF739FF70BDFFF75CFB94
:1033B00070BD0000F0B581B0044601680868754B27
:1033C0000340A0682269024360691043E269104328
:1033D00018430860032630034B688343E0681843B2
:1033E0004860A5696C4B994202D0206A284300E0EE
:1033F00028460B252D028F68AF4307438F6067482F
:10340000814214DD0027664881421FD06548814211
:103410001CD06548814243D16548C06C8007000FCD
:1034200065A52F580125E803994213D13DE05F4877
:10343000814205D0994233D15D48C06C000A01E059
:103440005B48C06C0C2505405A4847590125E803E4
:1034500099422AD0824211D1082F00D994E0C04667
:103460007F443F797F00BF44043D478F4D8F8F8F4E
:103470007600FEF7C3F8002848D06CE0082F00D98A
:1034800082E0C0467F443F797F00BF440430417DE5
:10349000477D7D7D7200FEF7B1F8002869D141E0DB
:1034A00010270125E8039942D4D1082F6CD8C046D3
:1034B0007F443F797F00BF44046709670F676767F0
:1034C0003800FEF79BF800282FD109E03848006843
:1034D000C00629D53D4828E0FEF7AAF8002824D1E7
:1034E000002551E0FEF794F8002834D10EE0FEF7F5
:1034F0008FF800283DD115E02D480068C00629D579
:10350000324828E0FEF794F8002824D100253BE05B
:1035100027480068C0062BD52C482AE0FEF788F81B
:10352000002826D100252FE0274862685643B04284
:103530002AD31103884227D8010E5608000200231F
:1035400080195941FCF7D4FD22494118224A914281
:103550001AD216E01C48400061684A081018FCF7AF
:103560009BFF1B4901400FD00007400F084308E0B4
:10357000154861684A081018FCF78EFF80B21028C1
:1035800002D32168C860002500206066A066284636
:1035900001B0F0BDF369FFEF00480040FF4B004071
:1035A000004C004000500040003801400044004002
:1035B00000100240D8430008010000000400000091
:1035C00002000000080000000024F40000093D0093
:1035D000F0FF000000FDFFFF00FD0F00F0B587B019
:1035E00016460F4605460468E1693940C91B4A4240
:1035F0004A410020B24224D1069304952A467432EF
:103600000C9D002D1FD0691C43D1E1693940C91BB5
:103610004A424A41B24214D1E1693940C91B4A4287
:103620004A41B2420DD1E1693940C91B4A424A417F
:10363000B24206D1E1693940C91B4A424A41B2420D
:10364000E3D007B0F0BD0392FDF708FC049CEFF354
:103650001081012080F310880D22520123681D681B
:1036600095431D6081F31088EFF3108180F310887B
:10367000226893688343936081F310882020A067B9
:103680007C3403990020087020202060032007B0BC
:10369000F0BD0392029001200190C0020590049CAD
:1036A00006E0C0693840C01B41424141B1422DD1C2
:1036B000FDF7D4FB0699401AA842C8D820680168D3
:1036C0004907EED5C169059A1142EAD00599016210
:1036D000EFF31080019D85F310880D2149012268C8
:1036E00013688B43136080F31088EFF3108085F329
:1036F000108821688A68AA438A6080F31088202095
:10370000A067E06703990C460C34BBE7029807B04A
:10371000F0BD000080B58548FEF784FD80BDC04641
:1037200080B50948FEF77EFD80BDC04680B582B0F9
:1037300001900020C343044801A90122FFF7D2F9F8
:10374000019802B080BDC0463803002070B5044621
:10375000052005070122160228463146FDF776FBB3
:103760002046FDF74DFA002228463146FDF76EFB54
:103770006420FDF745FA70BD9EB001252803674916
:103780000A6802430A60FDF7DBFC10A80190001DE7
:103790002421FCF7E4FC00240A94099408940326ED
:1037A000F0025F490A688243E8020090101808603E
:1037B000A8051D90A8041C901B9402271A97159524
:1037C0001020149013950A2010900198FDF76AFFBD
:1037D0000F940E940D940C960F200B900BA8294675
:1037E000FDF7F8FD68030790009806900820059003
:1037F00004972F2002906804039002A8FDF70EFDA5
:10380000FFF74CFAFFF732FAFFF7B6FBFFF714FBAE
:10381000FFF7F4F9FFF7CEFAFFF792FBFFF7F6FA9E
:10382000FFF72CFB00F0ACF83E4820212246FDF7C4
:103830000DFB3D4D29460A313C4804220191FEF71B
:10384000FBFF3B48FFF782FF3A48292101706420C3
:10385000FFF77CFF3848FDF761FC2869411C2961AE
:1038600036484843F841364A904202D835A000F025
:1038700005F91420FDF7C4F92878012835D1A97A73
:10388000334E304600F0FAF8E97A304600F0F6F8A8
:10389000297B304600F0F2F8697B304600F0EEF804
:1038A000A87AFF2804D0297BFF2910D029A016E090
:1038B000287BE97A0A18521ED2B26B7B9A420DD14C
:1038C00009020918E980284800F0D8F809E0697B66
:1038D0004218521ED2B2EB7A9A42F1D0214800F03F
:1038E00059FDC820FFF732FF2C7068780128AED14F
:1038F0001EA026463C46214F394600F0BFF82989D4
:10390000384627463446FCF72AFC6E702E81042286
:1039100006480199FFF71AF899E7C0460858014090
:103920000070004000040050B0000020B4020020ED
:1039300088130000A8000020FC010020295C8FC231
:10394000285C8F026C6F6F70202569207C0000005E
:10395000F543000820756E6B6E6F776E206F726492
:1039600065720D00F3430008E84300087278444193
:1039700054415F32203D202573000000BC0500202B
:10398000B0B5174D2868002813D42868400012D419
:103990002868800011D42868C00010D4286800016D
:1039A0000FD4286840010ED42868800112D5324C0B
:1039B0000AE00CA408E013A406E01BA404E0254CD4
:1039C00002E025A400E02B4CFDF748FA0146204612
:1039D00000F054F80120C005296801432960B0BDFA
:1039E000501002405B25645D7265626F6F742065E4
:1039F00072726F723A4C6F772D706F776572210D0E
:103A00000A0000005B25645D7265626F6F7420655B
:103A100072726F723A57696E646F77207761746360
:103A200068646F67210D0A005B25645D7265626FD3
:103A30006F74206572726F723A496E646570656E5C
:103A400064656E74207761746368646F67210D0A22
:103A5000000000002D4400085B25645D7265626F04
:103A60006F74206572726F723A504F522F504452E9
:103A7000210D0A0014440008FC4300080FB410B5DF
:103A800003A9044B044A029800F0E8F810BC08BCF3
:103A900004B018472D370008000000202021020C38
:103AA00001D010211046020A01D01046083902093F
:103AB00001D01046091F820801D01046891E420815
:103AC00001D0881E7047081A704702E008C8121F0C
:103AD00008C1002AFAD170477047002001E001C1F7
:103AE000121F002AFBD17047F0B51FB486B00998A9
:103AF000089A030D0021024314D05148514A181866
:103B0000504305141198012810981AD0281A401C07
:103B100000264D4F4D49009601910490002812DA7D
:103B2000444211E01198012449A3012801D11098C1
:103B3000C1430698119A84600360C26041600BB073
:103B4000F0BD4042E4E70446210500203F4A001C46
:103B500051410391029012E0E00707D032463B4604
:103B600001990098FCF7B8FB0191009032463B4662
:103B700010461946FCF7B0FB06460F466410002CB1
:103B8000EAD10498039B0028029A0999089806DA5A
:103B9000FCF7A2FB019B009AFCF79EFB05E0FCF7FB
:103BA00003FC019B009AFCF7FFFB04460E46002233
:103BB000284BFCF743FD03D80020C043014607E033
:103BC0000022254B20463146FCF7D4FAFCF716FDBF
:103BD000102409E0002C0ADB0A220023FCF788FAF3
:103BE000079B30321A55641E02460A43F2D1112255
:103BF000641C079B121B1C19119B012B03D0012372
:103C000008430ED10AE0084304D011201090002090
:103C1000119077E71098151A6D1E0BE010988242EC
:103C200002DD00236D1C03E0824201DA00236D1ED9
:103C3000002BEED0069811998260C16030C07EE7FB
:103C400001FCFFFF104D0000000014400000F03F99
:103C5000300000000000F0430000E03FFFB597B0E7
:103C60000646002518E2252877D100242746FD497D
:103C7000049400E00443761C32780120203A9040FE
:103C80000842F7D130782A280ED002223078014637
:103C90003039092916D804990A2359433039401874
:103CA0001443761C0490F1E7189802C80491189008
:103CB000002904DA01204003044348420490022012
:103CC0000443761C30782E2814D1042004437078E5
:103CD000761C2A2809D11898761C80C8189009E00B
:103CE0000A214F43303FC719761C307801463039DE
:103CF0000929F5D930786C2810D006DC4C281AD068
:103D000068280ED06A2817D104E0742813D07A28C6
:103D100012D110E00120400504430CE00121090507
:103D200001E0032109050C437178814203D1012090
:103D300000052418761C761C3078119066280BD06C
:103D400013DC58287DD009DC00287BD04528F6D02C
:103D50004628F4D047281AD1A5E118E0632835D0C9
:103D6000642870D0652812D19DE170286CD008DCE1
:103D70006728F1D069287BD06E280DD06F2806D136
:103D8000BAE073282ED0752871D0782859D01A9AA5
:103D9000199990476D1C7EE16002400F022809D0FE
:103DA00003280DD00428189801680DD00D60001D5F
:103DB000189070E11898EA1701680D604A60F6E7FC
:103DC000189801680D80F2E70D70F0E718986A46C0
:103DD00001781172001D18900020507202A8009006
:103DE000012005E0189802C8189000200091C043F7
:103DF00061070DD5002101E00199491C0191B942EB
:103E000012DA8142F8DB009A515C0029F4D10BE010
:103E1000002101E00199491C01918142FADB019ADC
:103E20000099895C0029F5D1019904981A9B471AD9
:103E300021463846199A00F097FA01994019451819
:103E40000BE04FE02CE113E04EE000980099007881
:103E5000491C00911A9A199990470198401E0190A7
:103E6000401CF2D1214638461A9B199A10E137E0DE
:103E70000A200021009001916002410F022907D021
:103E8000189A01CA1892C2179446032908D00AE06A
:103E90001898C01DC108C90005C91891944607E0CB
:103EA00000B2C2179446042902D140B2C1178C4611
:103EB00000226146944506DA0A46002140429141BB
:103EC0008C462D2102E0210504D52B216A46117371
:103ED000012103E0E10701D02021F7E7029155E03D
:103EE0000A200AE0102008E01020009000210420A1
:103EF00004430191082703E008200021019100906C
:103F00006002410F022907D0189A01CA18920022B4
:103F10009446032908D008E01898C01DC108C900BC
:103F200005C91891944603E080B2042900D1C0B2BB
:103F300000210291210729D51199702906D0009AF4
:103F40001021019B4A401A4305D00EE040216A46E9
:103F50001173012108E06146014306D030216A4611
:103F600011731199517302210291009A0821019B4A
:103F70004A401A430AD16146014301D1610705D580
:103F800030216A46117301217F1E0291119958292F
:103F900004D035A10E910DA90D910DE037A1F9E7DF
:103FA0006146019B009AFCF7A3F80E9B8C469B5C34
:103FB0000D9A521E0D92137061460143F0D10D9877
:103FC00005A9081A20300190600703D501200004DC
:103FD000844300E001270198874201DD381A00E0A0
:103FE0000020019900904118029809180498401A7D
:103FF0000490E00306D421461A9B199A049800F015
:10400000B3F94519002706E003A81A9AC05D19996B
:1040100090476D1C7F1C02988742F5DBE0030CD5AE
:1040200021461A9B199A049800F09EF9451904E05C
:104030001A9A3020199990476D1C0099481E0090DB
:104040000029F5DC08E00D980D990078491C0D91C8
:104050001A9A199990476D1C0199481E01900029E0
:10406000F1DC63E109280100303132333435363771
:1040700038396162636465660000000030313233B4
:104080003435363738394142434445460000000054
:1040900000F05AF94519761C3078002800D0E2E586
:1040A00028461BB0F0BD600700D406271898C01D35
:1040B000C108C90048680A680831C30FDB071891B6
:1040C000190001D09CA108E0210501D59BA104E0C5
:1040D000E10701D09AA100E09AA1430011985B0882
:1040E000109165280CD006DC452809D046281DD043
:1040F000472841D141E0662818D067283CD13CE0F0
:104100000021112F01DB112000E0781C01910090AB
:1041100008A911A8FFF7E8FC139905910021119A4D
:1041200015927F1C12980197009150E00120C00762
:1041300003900120019008A9009711A8FFF7D4FC73
:10414000139A149905920022119B009212981593CC
:10415000059A0192002901D0104602E0791C40180E
:104160000190381A01D5019804E04042401E0090A9
:10417000781C0190C01B029043E0012F00DA012758
:104180000021112F01DD112000E03846019100903F
:1041900008A911A8FFF7A8FC13990591119A00210D
:1041A000129815920091019721070CD40599B942F4
:1041B00001DB019900E00191012904DD159A491EF6
:1041C000515C302906D0B84201DA011D05DA01211F
:1041D000029115E00199491EEDE7002805DC0099E0
:1041E000411800910199091A03E0019A411C91427A
:1041F00000DD01910099401A401C02900120C00787
:104200000390200706D402990198814202DB002026
:10421000C043029000206946C87707AF0121039888
:104220000337C907884224D0022011902B20129016
:10423000039800280CDA404203902D20129007E0EA
:104240000A210398FCF728F930317F1E039039705A
:104250001199481E11900029F2DC03980028EFD133
:10426000791E129808703078202108404530BF1E12
:10427000387006A8C01BC01D039010980078002855
:1042800000D00120019941180298C017091803981D
:1042900009180498401A401E0490E00306D42146F1
:1042A0001A9B199A049800F05FF845191098007845
:1042B000002803D01A9A199990476D1CE00324D561
:1042C00021461A9B199A049800F04EF845191CE0F3
:1042D0000098002807DB00990598884203DD1598AF
:1042E000405C199901E0199930201A9A904700987A
:1042F0006D1C401C00900298401E0290002804D1C2
:104300001A9A2E20199990476D1C0199481E019008
:104310000029DDDC05E038781A9A7F1C199990474E
:104320006D1C0399481E03900029F4DC21461A9B5A
:10433000199A0498ACE600002D0000002B00000044
:104340002000000000000000F8B5044600251E46CD
:104350001746880404D405E039462020B0476D1C78
:10436000641EF9D52846F8BDFFB50446002581B086
:104370001E46C80301D5302700E02027880404D555
:1043800005E038460399B0476D1C641EF9D52846F0
:1043900005B0F0BD10B5044601E0FFF7C7F920787D
:1043A000641C03490028F8D10A20FFF7BFF910BDAB
:1043B00000000020000000000000000001020304D3
:1043C00006070809000000000102030403040608B0
:1043D0000C10182030000000000000000400000055
:1043E0000200000008000000203D202575206D6DB2
:1043F0000D0A000D0025303278207C005B25645DBD
:104400007265626F6F74206572726F723A424F52BA
:10441000210D0A005B25645D7265626F6F74206513
:1044200072726F723A4E525354210D0A005B25642A
:104430005D7265626F6F74206572726F723A536F4E
:10444000667477617265210D0A00000070440008EF
:1044500000000020B0000000CA3A00082045000813
:10446000B0000020400C0000DA3A00080000000014
:1044700000000000DC080020000000000000000038
:10448000000000000000000000000000000000002C
:10449000000000000000000000000000000000001C
:1044A000000000000000000000000000000000000C
:1044B00000000000000000000000000000000000FC
:1044C000000000000000000000000000E8060020DE
:1044D00000000000010000000400000000002000B7
:1044E00000000300000000000000000000000000C9
:1044F00000000000000000000000000000000000BC
:1045000000000000000000000000000000000000AB
:1045100000000000BC030020290000000000000093
:04000005080000C12E
:00000001FF
